:020000040800F2
:100000009022002049010008013400080334000850
:10001000073400080B3400080F340008000000000B
:100020000000000000000000000000001334000881
:1000300015340008000000001734000861010008B2
:100040006301000863010008630100086301000800
:1000500063010008630100086301000863010008F0
:1000600063010008630100086301000863010008E0
:1000700063010008630100086301000863010008D0
:1000800063010008630100086301000863010008C0
:1000900063010008630100086301000863010008B0
:1000A00063010008630100086301000863010008A0
:1000B000630100084347000863010008630100086A
:1000C0006301000863010008630100086301000880
:1000D0006301000831370008533600086301000847
:1000E0006301000863010008630100086301000860
:1000F0006301000863010008630100086301000850
:10010000630100086301000863010008630100083F
:10011000630100086301000863010008630100082F
:10012000630100086301000863010008630100081F
:10013000DFF810D007F060FE00480047592E000895
:10014000AFF3008090220020064880470648004711
:10015000FEE7FEE7FEE7FEE7FEE7FEE7FEE7FEE777
:10016000FEE7FEE74B020008310100080CB5002055
:10017000019000906C48006840F480306A49086043
:1001800000BF6948006800F4003000900198401CEE
:100190000190009818B90198B0F5A06FF1D16248AC
:1001A000006800F4003010B10120009001E0002050
:1001B00000900098012843D15C48006840F010008E
:1001C0005A4908600846006820F0030008600846A5
:1001D000006840F002000860534840685249486097
:1001E0000846406848600846406840F480604860BF
:1001F0000846406820F47C1048600846406840F497
:10020000E81048600846006840F08070086000BF51
:100210004548006800F000700028F9D04248406866
:1002200020F00300404948600846406840F0020062
:10023000486000BF3C48406800F00C000828F9D135
:100240000CBD10B5FFF792FF10BD10B53648006821
:1002500040F00100344908600846406834490840CD
:100260003149486008460068324908402E49086014
:100270000846006820F4802008600846406820F4A2
:10028000FE0048604FF41F008860FFF7DAFF4FF070
:1002900000602949086010BD10B50021002000222F
:1002A000214B5B6803F00C0121B1042906D0082919
:1002B00028D107E0214B224C236027E01F4B204C24
:1002C000236023E0184B5B6803F47010164B5B68E7
:1002D00003F48032022303EB904022B9194B4343CD
:1002E000174C23600DE0104B5B6803F4003323B11F
:1002F000144B4343124C236003E0104B4343104C18
:10030000236003E00D4B0E4C236000BF00BF064B83
:100310005B68C3F303130C4CE15C094B1B68CB40D7
:10032000074C236010BD0000001002400020024076
:100330000000FFF8FFFFF6FE08ED00E000127A0073
:100340000000002000093D00040000203149014365
:10035000314A1160704770B5002100230F22C47824
:1003600004B32D4C246804F4E064C4F5E064210A6D
:10037000C1F10403CA40447804FA03F184781440BC
:1003800021430901254C0678A155047804F01F0586
:100390000124AC4005786D11AD0005F1E025C5F8EC
:1003A000004109E0047804F01F050124AC401C4D15
:1003B0000678761145F8264070BD1A4A0A40024375
:1003C000154B1B1F1A60704739B1134A121D126872
:1003D0000243114B1B1D1A6006E00F4A121D1268E2
:1003E00082430D4B1B1D1A607047042808D14FF043
:1003F000E021096941F004014FF0E022116107E0BA
:100400004FF0E021096921F004014FF0E022116171
:10041000704700000000FA050CED00E000E400E089
:1004200080E100E080FFFF1F10B50446FA488442D7
:1004300008D10121401501F033F80021601501F0C9
:100440002FF817E0F548844208D10121001501F08A
:1004500027F80021201501F023F80BE0F048844232
:1004600008D10121C80301F01BF800214FF400401E
:1004700001F016F810BD30B5024600200023506888
:10048000E84C20400D790C6844EA05242043506074
:100490009068E54C2040D1E902542C434D7944EA60
:1004A000450420439060D06A20F470000C7C641EE8
:1004B000E4B2234340EA0350D06230BD0021016022
:1004C000017141718160C16001210174704721B1E6
:1004D000826842F00102826003E0826822F0010239
:1004E0008260704721B1826842F48072826003E0CA
:1004F000826822F480728260704710B50023CBB20C
:100500001AB144681C43446002E044689C43446060
:1005100010BD816841F008018160704701460020EC
:100520008A6802F008020AB1012000E0002070474A
:10053000816841F0040181607047014600208A68AB
:1005400002F004020AB1012000E00020704721B14E
:10055000826842F4A002826003E0826822F4A00272
:1005600082607047014600208A6802F480020AB166
:10057000012000E00020704710B50A46002100234A
:10058000416821F46041531E41EA4331416010BD8E
:1005900021B1426842F40062426003E0426822F402
:1005A000006242607047F0B504460D46002000210D
:1005B000092D11DDE068A5F10A0606EB46070726BE
:1005C00006FA07F18843A5F10A0606EB460603FA88
:1005D00006F10843E0600CE0206905EB45070726BB
:1005E00006FA07F1884305EB450603FA06F10843CE
:1005F0002061072A0FDA606B561E06EB86071F265E
:1006000006FA07F18843561E06EB860605FA06F140
:100610000843606322E00D2A0FDA206BD61F06EB39
:1006200086071F2606FA07F18843D61F06EB8606C3
:1006300005FA06F10843206310E0E06AA2F10D0616
:1006400006EB86071F2606FA07F18843A2F10D067E
:1006500006EB860605FA06F10843E062F0BD21B11B
:10066000826842F48012826003E0826822F4801281
:10067000826070470146C86C80B2704766484C3053
:100680000068704721B1426842F48062426003E032
:10069000426822F480624260704721B1426842F4AD
:1006A0008052426003E0426822F480524260704708
:1006B0000A460021816821F4E041114381607047BE
:1006C00021B1826842F40042826003E0826822F431
:1006D00000428260704721B1826842F40212826057
:1006E00003E0826822F40212826070470146002013
:1006F0008A6802F400120AB1012000E0002070476D
:10070000F0B504461546002000220026092911DD17
:10071000E068A1F10A0707EB470C072707FA0CF27C
:100720009043A1F10A0707EB470703FA07F21043CA
:10073000E0600CE0206901EB410C072707FA0CF29E
:10074000904301EB410703FA07F210432061A06BCD
:10075000C0F30156EF1C06F1010CA7EB0C0707EBE9
:10076000870C1F2707FA0CF29043EF1C06F1010CCF
:10077000A7EB0C0707EB870701FA07F21043A0630A
:10078000F0BD10B50A4600210023816B21F4401111
:10079000531E41EA0351816310BD08B50023009345
:1007A0000090009B0B440093009B1A6008BD08B5A5
:1007B000024600200090009201F12800009B18449E
:1007C00000900098006880B208BD0A460021416888
:1007D000164B194011434160704741628262704775
:1007E0000A460021416821F01F0111434160704712
:1007F00040B109490831096841F40001064A08324C
:10080000116007E004490831096821F40001024A37
:1008100008321160704700000024014000280140A8
:10082000003C0140FFFEF0FFFDF7F1FFFFFD3FFF41
:100830000246002013680B400BB1012000E00020AD
:100840007047CA430260704770B50246002000231B
:1008500000240B125568CEB205EA060415681D4047
:1008600015B10CB1012000E0002070BD00220A1279
:10087000D34303607047000001460020FE4A106821
:1008800000F03800084310607047FB49096821F008
:100890000801F94A11601146096801431160704767
:1008A000F549096821F01001F34A11601146096801
:1008B000014311607047F148EF494860F0484860D3
:1008C0007047EE48EC494860ED4848607047EA4898
:1008D000006940F08000E84908617047E648006917
:1008E00040F08000E449086170470420E249C9688B
:1008F00001F0010109B101200EE0DF49C96801F0F2
:10090000040109B1022007E0DB49C96801F01001C8
:1009100009B1032000E00420704700B5024604231B
:10092000FFF7E3FF034603E0FFF7DFFF0346521E36
:10093000012B01D1002AF7D102B90523184600BDC9
:1009400030B5044604254FF43020FFF7E6FF054696
:10095000042D17D1C848006940F00200C64908615B
:1009600008464461006940F0400008614FF43020BF
:10097000FFF7D3FF0546C048006941F6FD71084006
:10098000BD490861284630BD10B504244FF430201D
:10099000FFF7C3FF0446042C16D1B748006940F0A6
:1009A0000400B54908610846006940F0400008614C
:1009B0004FF43020FFF7B1FF0446AF48006941F61D
:1009C000FB710840AC490861204610BD00B50246E5
:1009D0000423FFF78AFF034603E0FFF786FF034681
:1009E000521E012B01D1002AF7D102B90523184666
:1009F00000BD10B504244FF43020FFF7E7FF044694
:100A0000042C16D19C48006940F004009A49086102
:100A10000846006940F0400008614FF43020FFF7BD
:100A2000D5FF04469448006941F6FB71084092499D
:100A30000861204610BD00208F49C96901F00201FC
:100A400009B1012000E00020704730B5A52504243D
:100A5000FFF7F1FF00B100254FF43020FFF75DFFF5
:100A60000446042C3AD185488349886084488860CC
:100A70000846006940F0200008610846006940F01F
:100A8000400008614FF43020FFF747FF0446042C74
:100A90001BD17948006941F6DF7108407649086149
:100AA0000846006940F01000086176480580E002C1
:100AB000FFF733FF0446052C10D06F48006941F65C
:100AC000EF7108406C49086108E0052C06D06A48BF
:100AD000006941F6EF71084067490861204630BD62
:100AE00078B506460C46042500200090E802FFF782
:100AF00014FF0546042D24D15F48006940F0010031
:100B00005D4908613480E802FFF707FF0546042DC0
:100B100010D1B01C0090200C00990880E802FFF76B
:100B2000FCFE05465448006941F6FE7108405249F2
:100B3000086106E05048006941F6FE7108404E49E0
:100B40000861284678BD70B504460D460426F002BB
:100B5000FFF7E3FE0646042E11D14748006940F036
:100B60000100454908612580F002FFF7D6FE0646E0
:100B70004148006941F6FE7108403F49086130462E
:100B800070BD70B505460E460424E002FFF7C5FEB1
:100B90000446042C17D139483749886038488860A2
:100BA0000846006940F0100008612E80E002FFF75F
:100BB000B4FE0446052C06D02F48006941F6EF71BB
:100BC00008402D490861204670BD2DE9F0430446D8
:100BD0004FF6FF763746B046B1460425E443E6B209
:100BE000C4F30727C4F307484FEA1469E802FFF784
:100BF00094FE0546042D49D120481F4988602048AD
:100C000088600846006940F010000861FF2E06D099
:100C10001C4808300680E802FFF77FFE0546042DD9
:100C200008D1FF2F06D017480A300780E802FFF7E7
:100C300074FE0546042D0AD1B8F1FF0F07D0114804
:100C40000C30A0F80080E802FFF767FE0546042D8F
:100C50000AD1B9F1FF0F07D00A480E30A0F8009072
:100C6000E802FFF75AFE0546052D0FD0024800693D
:100C700041F6EF71084007E000200240230167457C
:100C8000AB89EFCD00F8FF1F664908612846BDE833
:100C9000F08330B5054604244FF43020FFF73DFEC5
:100CA0000446042C41D160485E4988605F488860F2
:100CB0000846006940F0200008610846006940F0DD
:100CC000400008614FF43020FFF727FE0446042C53
:100CD00022D15448006941F6DF710840514908614A
:100CE0000846006940F0100008611DB1002050491D
:100CF000088002E0A5204E4908804FF43020FFF71D
:100D00000CFE0446052C10D04648006941F6EF71F0
:100D100008404449086108E0052C06D041480069B4
:100D200041F6DF7108403F490861204630BDF0B50B
:100D300005460E46174604243B483A4988603B481E
:100D40008860E002FFF7E9FD0446042C19D135481C
:100D5000006940F010003349086147F0F800304363
:100D600028433349891C0880E002FFF7D6FD04467A
:100D7000052C06D02B48006941F6EF71084029493F
:100D800008612046F0BD2748C069800870472548A3
:100D9000006A704700202349096801F0200109B169
:100DA000012000E00020704729B11E4A1269024369
:100DB0001C4B1A6104E01B4A12698243194B1A61E9
:100DC000704701460020012908D1164AD26902F075
:100DD00001020AB1012008E0002006E0114AD268B1
:100DE0000A400AB1012000E0002070470D49C860A8
:100DF000704704200B49C96801F0010109B10120C5
:100E00000EE00849C96801F0040109B1022007E0B9
:100E10000449C96801F0100109B1032000E0042071
:100E2000704700000020024023016745AB89EFCDE9
:100E300000F8FF1F10B50446CC48844208D10121B8
:100E4000042000F02DFB0021042000F029FB46E0E7
:100E5000C748844208D10121082000F021FB00216D
:100E6000082000F01DFB3AE0C248844208D101216D
:100E7000102000F015FB0021102000F011FB2EE0E7
:100E8000BD48844208D10121202000F009FB002147
:100E9000202000F005FB22E0B848844208D101215F
:100EA000402000F0FDFA0021402000F0F9FA16E0A1
:100EB000B348844208D10121802000F0F1FA0021DA
:100EC000802000F0EDFA0AE0AE48844207D101210B
:100ED000801500F0E5FA0021A01500F0E1FA10BD40
:100EE00010B50121084600F0DBFA0021012000F0D6
:100EF000D7FA10BD2DE9F04102460025002600205A
:100F000000230024002791F803C00CF00F0591F88E
:100F100003C00CF0100CBCF1000F03D091F802C01C
:100F20004CEA050591F800C0BCF1000F31D01468FF
:100F300000202BE04FF0010C0CFA00F3B1F800C0D8
:100F40000CEA03069E4220D183004FF00F0C0CFAEE
:100F500003F7BC4305FA03FC4CEA040491F803C010
:100F6000BCF1280F06D14FF0010C0CFA00FCC2F8BE
:100F700014C00AE091F803C0BCF1480F05D14FF04E
:100F8000010C0CFA00FCC2F810C0401C0828D1D398
:100F90001460B1F800C0BCF1FF0F34DD54680020CC
:100FA0002EE000F1080C4FF0010808FA0CF3B1F83C
:100FB00000C00CEA03069E4221D183004FF00F0CC3
:100FC0000CFA03F7BC4305FA03FC4CEA040491F85D
:100FD00003C0BCF1280F05D100F1080C08FA0CF889
:100FE000C2F8148091F803C0BCF1480F07D100F19A
:100FF000080C4FF0010808FA0CF8C2F81080401CE9
:101000000828CED35460BDE8F0814FF6FF7101800F
:10101000022181700421C17070470246002093684C
:101020000B400BB1012000E00020704701468868AA
:1010300080B2704702460020D3680B400BB10120FC
:1010400000E0002070470146C86880B27047016127
:101050007047416170470AB1016100E0416170472A
:10106000C16070474FF480320A43826181618261BE
:1010700082698269704702460020434B18684FF628
:101080008073184040EA021008433F4B18607047D5
:101090003E49C8617047F0B50A460023002400218C
:1010A000002500F00046B6F1004F02D1364EF1693E
:1010B00001E0354E7168C0F3034583B200F4401679
:1010C000B6F5401F08D121F070612F4E766826F0EA
:1010D00070662D4F7E6012E000F48016B6F5801F1A
:1010E00006D1032606FA05F4A14341F0706106E03B
:1010F000460D360103FA06F6B14341F0706122B1A4
:10110000460D360103FA06F6314300F00046B6F10B
:10111000004F02D11C4EF16101E01B4E7160F0BD29
:1011200030B500228B071C0F0F2303FA04F2164B75
:1011300008338C1053F824309343134C08348D102B
:1011400044F8253023468C1053F824308C07240FA4
:1011500000FA04F423430C4C08348D1044F8253075
:1011600030BD0A49DC3108607047000000080140CA
:10117000000C014000100140001401400018014023
:10118000001C0140002001400000014000002042FE
:10119000DF48006840F00100DD490860084640680B
:1011A000DC490840DA49486008460068DA490840E6
:1011B000D74908600846006820F480200860084687
:1011C000406820F4FE0048604FF41F0088607047BC
:1011D000CF49096821F48031CD4A11601146096870
:1011E00021F480211160B0F5803F03D0B0F5802F4D
:1011F0000ED106E0C649096841F48031C44A116045
:1012000007E0C349096841F4A021C14A116000E028
:1012100000BF00BF704710B5014600220023002028
:101220004A11012A02D1BA4C236806E0022A02D1EF
:10123000B74C236A01E0B64C636A01F01F02012437
:1012400094401C400CB1012000E0002010BD38B5D6
:10125000002000900024002500BF3120FFF7DBFFB5
:1012600005460098401C00900098B0F5A06F01D092
:10127000002DF2D03120FFF7CEFF08B1012400E0AD
:101280000024204638BD01460020A14A106820F005
:10129000F80040EAC10010607047A049086070473C
:1012A000024600209A4B586820F47C1042EA010361
:1012B0001843974B58607047984908667047014635
:1012C0000020934A506820F00300084350607047A4
:1012D0008F48406800F00C007047014600208C4A9F
:1012E000506820F0F000084350607047014600202D
:1012F000874A506820F4E060084350607047014618
:101300000020834A506820F4605040EAC1005060D9
:10131000704729B17E4A527A02437D4B5A7204E0EB
:101320007B4A527A82437A4B5A7270477B49D83152
:101330000860704701460020754A506820F440401C
:101340000843506070470021714A20321170704A82
:1013500082F82010012802D004280AD104E00121DB
:101360006B4A2032117005E00521694A2032117064
:1013700000E000BF00BF70476949086070476449DA
:10138000096A0143624A116270476549443908603D
:10139000704730B500210022002400235C4D6D68A9
:1013A00005F00C0121B1042905D0082923D105E05D
:1013B0005C4D056022E05B4D05601FE0544D6D689B
:1013C00005F47012524D6D6805F48034022505EB6A
:1013D00092421CB9544D554305600BE04C4D6D686D
:1013E00005F400351DB1504D5543056002E04D4DEB
:1013F0005543056002E04B4D056000BF00BF444D02
:101400006D6805F0F0010909484D6B5C0568DD4029
:1014100045603F4D6D6805F4E061090A434D6B5C22
:101420004568DD4085603A4D6D6805F46051C90A34
:101430003E4D6B5C4568DD40C560354D6D6805F41B
:101440004041890B3A4D6B5CC568B5FBF3F505610E
:1014500030BD29B12E4A526902432D4B5A6104E036
:101460002B4A526982432A4B5A61704729B1284A54
:1014700092690243264B9A6104E0254A92698243AD
:10148000234B9A61704729B1214AD2690243204B0C
:10149000DA6104E01E4AD26982431D4BDA6170476B
:1014A00029B11B4AD2680243194BDA6004E0184A9A
:1014B000D2688243164BDA60704729B1144A126928
:1014C0000243134B1A6104E0114A12698243104B24
:1014D0001A61704712494039086070470F49C86463
:1014E00070470B49C87170470948406A40F08070E6
:1014F00007494862704701460020054A92680A4041
:101500000AB1012000E0002070470149887270474D
:10151000001002400000FFF8FFFFF6FE000042420C
:101520008004424200127A0000093D0014000020AD
:101530002400002010B50446FE48844208D1012151
:10154000C014FFF7ADFF0021E014FFF7A9FFC4E0CE
:10155000B4F1804F08D101210846FFF7AEFF00210A
:101560000120FFF7AAFFB8E0F348844208D1012127
:101570000220FFF7A2FF00210220FFF79EFFACE050
:10158000EE48844208D101210420FFF796FF002194
:101590000420FFF792FFA0E0E948844208D101212E
:1015A0000820FFF78AFF00210820FFF786FF94E05C
:1015B000E448844208D101211020FFF77EFF00217A
:1015C0001020FFF77AFF88E0DF48844208D101212C
:1015D0002020FFF772FF00212020FFF76EFF7CE044
:1015E000DA48844208D101214014FFF759FF002155
:1015F0006014FFF755FF70E0D548844209D10121FE
:10160000C804FFF74DFF00214FF40020FFF748FF0B
:1016100063E0D048844209D101210805FFF740FF6B
:1016200000214FF48010FFF73BFF56E0CA48844288
:1016300009D101214805FFF733FF00214FF40010C5
:10164000FFF72EFF49E0C548844208D10121402020
:10165000FFF733FF00214020FFF72FFF3DE0C04898
:10166000844208D101218020FFF727FF002180203C
:10167000FFF723FF31E0BB48844208D101218015E8
:10168000FFF71BFF0021A015FFF717FF25E0B64865
:10169000844209D101210804FFF702FF00214FF421
:1016A0008030FFF7FDFE18E0B048844209D10121E7
:1016B0004804FFF7F5FE00214FF40030FFF7F0FE7D
:1016C0000BE0AB48844208D101218804FFF7E8FE13
:1016D00000214FF48020FFF7E3FE10BD00220288B6
:1016E000944B98420ED0994B98420BD0B0F1804F5A
:1016F00008D0914B984205D0904B984202D0904B25
:10170000984204D14FF68F731A404B881A438D4B81
:10171000984207D08C4B984204D04FF6FF431A40B2
:10172000CB881A4302808B8883850B880385814B85
:1017300098420BD0854B984208D08B4B984205D0ED
:101740008A4B984202D08A4B984201D10B7A038689
:1017500001238382704770B5002400220023058C8A
:101760004FF6FE7635400584028C8388048B4FF655
:101770008F752C40B51E2C400D882C43751E2A40B9
:101780000D892A434D882A436A4DA8420BD06F4DDC
:10179000A84208D0744DA84205D0744DA84202D08A
:1017A000734DA84213D14FF6F7752A404D892A434D
:1017B0004FF6FB752A408D882A434FF6FF652B4074
:1017C0004FF6FF552B408D892B43CD892B438380CA
:1017D0000483CD888586028470BD70B50024002204
:1017E0000023058C4FF6EF7635400584028C838804
:1017F000048B48F6FF752C404FF6FF452C400D88B2
:101800004FF6FF7606EA05252C434FF6DF752A4092
:101810000D8906EA05152A434D8806EA05152A436F
:10182000444DA84202D0494DA8421DD14FF67F75C4
:101830002A404D894FF6FF7606EA05152A434FF6F2
:10184000BF752A408D8806EA05152A434FF6FF35F5
:101850002B404FF2FF752B408D8906EA85052B43FF
:10186000CD8906EA85052B4383800483CD880587CF
:10187000028470BD70B5002400220023058C4FF651
:10188000FF6635400584028C8388848B4FF68F7504
:101890002C404FF6FC752C400D882C434FF6FF551D
:1018A0002A400D894FF6FF7606EA05252A434D8822
:1018B00006EA05252A431F4DA84202D0234DA8421F
:1018C0001DD14FF2FF752A404D894FF6FF7606EA8B
:1018D00005252A434FF6FF352A408D8806EA05255F
:1018E0002A434EF6FF752B404DF6FF752B408D8930
:1018F00006EA05152B43CD8906EA05152B4383809F
:101900008483CD888587028470BD70B50022002352
:101910000024058C4EF6FF7635400584038C8488C0
:10192000828B48F6FF752A404FF6FF452A400D8806
:1019300020E00000002C01400004004000080040AE
:10194000000C004000100040001400400034014032
:10195000004C01400050014000540140001800407C
:10196000001C0040002000400040014000440140B5
:10197000004801404FF6FF7606EA05252A434DF65A
:10198000FF752B400D8906EA05352B434D8806EA85
:1019900005352B43FA4DA84202D0FA4DA84208D192
:1019A0004BF6FF752C408D894FF6FF7606EA8515BC
:1019B0002C4384808283CD88A0F84050038470BD7E
:1019C000828B4FF2FF331A408283828B4FF6FF7374
:1019D00003EA01231A4382837047F0B50C4615468B
:1019E000002200210026078C4EF6FF7C07EA0C0738
:1019F0000784828B018C4FF6FF7707EA043640F6A6
:101A0000FF473A404FF6FF7707EA05273A434FF67C
:101A1000FF7707EA03373A43D94FB8420ED0D94F80
:101A2000B8420BD0B0F1804F08D0D74FB84205D0A4
:101A3000D64FB84202D0D64FB84206D14DF6FF7706
:101A4000394046F48057394305E047F6FF5739409F
:101A500044F48057394382830184F0BD828B4FF672
:101A6000F3731A408283828B0A4382837047F0B5F6
:101A70000C461546002200210026078C4FF6FF6C0D
:101A800007EA0C070784828B018C4FF6FF7707EA81
:101A900004264FF60C773A404FF6FF7707EA031714
:101AA0002F433A43B64FB8420ED0B64FB8420BD090
:101AB000B0F1804F08D0B44FB84205D0B34FB84210
:101AC00002D0B34FB84206D14FF6FF57394046F423
:101AD0008077394305E04FF2FF57394044F480776F
:101AE000394382830184F0BD028B4FF2FF331A40E9
:101AF0000283028B4FF6FF7303EA01231A4302832A
:101B00007047F0B50C461546002200210026078CD0
:101B10004FF6EF7C07EA0C070784028B018C4FF627
:101B2000FF7707EA041640F6FF473A404FF6FF7783
:101B300007EA03373A434FF6FF7707EA05273A43A8
:101B40008F4FB8420ED08F4FB8420BD0B0F1804FBC
:101B500008D08D4FB84205D08C4FB84202D08C4F80
:101B6000B84206D14FF6DF77394046F010073943C7
:101B700005E04FF65F77394044F0100739430283A0
:101B80000184F0BD028B4FF6F3731A400283028B7F
:101B90000A4302837047F0B50C4615460022002127
:101BA000068C4FF6FE773E400684028B018C4FF682
:101BB0000C7632407E1C06EA03162E433243704EEA
:101BC000B0420ED06F4EB0420BD0B0F1804F08D073
:101BD0006D4EB04205D06D4EB04202D06C4EB04258
:101BE00006D14FF6FD76314044F00106314305E061
:101BF0004FF6F576314044F001063143028301840B
:101C0000F0BD70B505460C465D4885420ED05D4876
:101C100085420BD0B5F1804F08D05B48854205D096
:101C20005A48854202D05A48854200D100E000BFA0
:101C3000208850B92389A28861882846FFF7ABFF26
:101C4000E1882846FFF79EFF25E0208804280AD176
:101C50002389A28861882846FFF753FFE188284638
:101C6000FFF742FF17E0208808280AD12389A288BD
:101C700061882846FFF7FBFEE1882846FFF7EEFE65
:101C800009E02389A28861882846FFF7A6FEE1883B
:101C90002846FFF795FE70BD2DE9F04105460C463C
:101CA00000260127608808B9022600E00026A088E7
:101CB000012801D1022700E001272088A0B923894B
:101CC000A28861882846FFF766FFE1882846FFF76B
:101CD00059FF23893A4631462846FFF712FFE1882B
:101CE0002846FFF701FF13E02389A2886188284670
:101CF000FFF707FFE1882846FFF7F6FE23893A46FB
:101D000031462846FFF747FFE1882846FFF73AFFAC
:101D1000BDE8F0810A884B881A438B881A43CB8828
:101D20001A430B891A434B891A438B891A43A0F82B
:101D3000442070474FF6FF71818000210180C180EF
:101D40004180017270470021018041808180C18003
:101D5000018141818181C1817047002101804180E1
:101D6000012181800021C180018170470021018013
:101D700041808180C1800181418181817047000063
:101D8000002C0140003401400004004000080040E5
:101D9000000C004021B1028842F00102028004E000
:101DA00002884FF6FE731A400280704731B1B0F8D6
:101DB000442042F40042A0F8442005E0B0F844205A
:101DC000C2F30E02A0F8442070471AB183890B4376
:101DD000838102E083898B438381704781827047CE
:101DE00041EA0203A0F8483070471AB183890B43D7
:101DF000838102E083898B438381704701894FF699
:101E0000F8721140018170470A46002101894FF69E
:101E10008F73194011430181704730B504460D4658
:101E200029462046FFF7F0FF208940F00700208177
:101E300030BD2DE9F04104460D4616461F46602D83
:101E400006D13B46012231462046FFF75AFE05E007
:101E50003B46012231462046FFF79DFE294620469B
:101E6000FFF7D2FF208940F007002081BDE8F08114
:101E700030B50C4600210189C9B24FF6FF7505EA5D
:101E80000325154325432943018130BD2DE9F04148
:101E900005460E4617469846002443463A463146C4
:101EA0002846FFF7E5FF2C894FF6F870044044F010
:101EB00007044FF68F70044044F070042C81BDE895
:101EC000F081F0B504460D4616461F463B463246A5
:101ED00029462046FFF7CCFF208940F4804020812E
:101EE000F0BD0185828270470A46002101884FF6C5
:101EF0008F731940114301807047F0B50C461546A9
:101F00001E460021002200230189028B038C4FF61C
:101F1000F877394021434FF6FC473A4040F2011729
:101F20003A434FF6DD773B404FF6FF7707EA061757
:101F30002F433B43018102830384F0BD0A46002105
:101F4000018B4FF68F7319401143018370470A4686
:101F50000021018B48F6FF7319404FF6FF7303EA27
:101F600002231943018370470A460021818B4FF6F3
:101F70008F7319401143818370470A460021818B7A
:101F800048F6FF7319404FF6FF7303EA0223194323
:101F90008183704721B1028842F08002028004E010
:101FA00002884FF67F731A400280704721B1828801
:101FB00042F00402828004E082884FF6FB731A40EC
:101FC0008280704721B1828842F00802828004E05A
:101FD00082884FF6F7731A408280704721B1828859
:101FE00042F00102828004E082884FF6FE731A40BC
:101FF000828070470A460021018B4FF6F773194023
:102000001143018370470A460021018B4FF2FF7391
:1020100019404FF6FF7303EA022319430183704707
:102020000A460021818B4FF6F773194011438183D3
:1020300070470A460021818B4FF2FF7319404FF61B
:10204000FF7303EA02231943818370470A46002184
:10205000018B4FF6FB7319401143018370470A4609
:102060000021018B4FF6FF3319404FF6FF7303EA4F
:1020700002231943018370470A460021818B4FF6E2
:10208000FB7319401143818370470A460021818BFD
:102090004FF6FF3319404FF6FF7303EA022319434B
:1020A000818370470A460021018B4FF67F731940E8
:1020B0001143018370470A460021018BC1F30E01D1
:1020C0004FF6FF7303EA02231943018370470A4660
:1020D0000021818B4FF67F73194011438183704734
:1020E0000A460021818BC1F30E014FF6FF7303EA0C
:1020F00002231943818370470A460021018C4FF661
:10210000FD7319401143018470470A460021018C78
:102110004FF6F77319401143018470470A460021B6
:10212000018C4FF6DF7319404FF6FF7303EA021379
:102130001943018470470A460021018C4FF67F73D2
:1021400019404FF6FF7303EA0213194301847047E5
:102150000A460021018C4FF6FF5319404FF6FF73DA
:1021600003EA02231943018470470A460021018CC7
:102170004FF2FF7319404FF6FF7303EA022319432E
:10218000018470470A460021018C4DF6FF73194007
:102190004FF6FF7303EA023319430184704730B5E9
:1021A000002301248C40A3B2048C9C430484048C3F
:1021B00002FA01F5ADB22C43048430BD30B50023E2
:1021C00004248C40A3B2048C9C430484048C02FA43
:1021D00001F5ADB22C43048430BD70B50346002038
:1021E00000241846183001258D40ACB21D8CA54343
:1021F0001D8409B1082909D100EB6100056825F0AB
:10220000700505600568154305600EE00D1FC5F3F8
:102210004E052844056825F4E045056005684FF63D
:10222000FF7606EA02263543056070BD21B10288BB
:1022300042F00202028004E002884FF6FD731A4069
:102240000280704721B1028842F00402028004E05B
:1022500002884FF6FB731A400280704721B18288D2
:1022600042F08002828004E082884FF67F731A4039
:102270008280704702884FF6F7731A400280028806
:102280000A430280704782884FF68F731A4082801B
:1022900082880A438280704702894FF6F8731A4099
:1022A000028102890A430281704702894FF67F73D7
:1022B0001A40028102890A43028170478184704773
:1022C0008185704781867047018770478187704795
:1022D000A0F84010704702884FF6FF431A40028072
:1022E00002880A43028070470146888E7047014683
:1022F000088F70470146888F70470146B1F840004B
:1023000070470146888C70470146088D7047024629
:102310000020138A0B400BB1012000E00020704721
:10232000CA430282704730B50246002000230024D1
:10233000158A05EA0103958905EA010413B10CB178
:10234000012000E0002030BDCA4302827047000037
:1023500010B50446FB48844209D101218803FFF7E8
:102360009FF800214FF48040FFF79AF832E0F648DA
:10237000844209D101214804FFF79FF800214FF45E
:102380000030FFF79AF825E0F048844209D1012196
:102390008804FFF792F800214FF48020FFF78DF8B2
:1023A00018E0EB48844209D10121C804FFF785F801
:1023B00000214FF40020FFF780F80BE0E54884424D
:1023C00008D101210805FFF778F800214FF48010AB
:1023D000FFF773F810BD2DE9F04786B005460E46AD
:1023E0000024A24600BFA1460027B08900B100BF6B
:1023F0002F462C8A4CF6FF700440F08804432C8250
:10240000AC894EF6F3100440B088318908437189D5
:1024100008430443AC81AC8A4FF6FF400440B089C6
:102420000443AC8201A8FEF7B4FFC648874202D13C
:10243000DDF810A001E0DDF80CA0A88900F4004050
:1024400040B10AEBCA0000EB0A1031684900B0FB4A
:10245000F1F807E00AEBCA0000EB0A1031688900C6
:10246000B0FBF1F86420B8FBF0F00401200964210E
:1024700001FB1089A88900F4004040B1322000EB34
:10248000C900B0FBF1F000F00700044308E032207F
:1024900000EB09106421B0FBF1F000F00F000443E1
:1024A0002C8106B0BDE8F0874FF416510160002181
:1024B0008180C18001810C2141810021818170478F
:1024C00010B502460020108A4FF2FF0318400B8817
:1024D0004C8823438C882343CC88234318431082A1
:1024E00010BD0021018041808180C180704721B1F1
:1024F000828942F40052828104E082894DF6FF73A2
:102500001A4082817047F0B503460024002600255A
:10251000002040F66A17B94200D100BF1846C1F347
:10252000421401F01F06012707FA06F5012C01D11C
:102530000C3004E0022C01D1103000E014301AB14C
:1025400007682F43076002E00768AF430760F0BDEC
:102550001AB1838A0B43838202E0838A8B4383828E
:102560007047028A4FF6F0731A400282028A0A43C9
:102570000282704782894FF2FF731A4082818289FA
:102580000A438281704721B1828942F0020282812E
:1025900004E082894FF6FD731A4082817047028AF7
:1025A0004FF6DF731A400282028A0A4302827047A2
:1025B00021B1028A42F48042028204E0028A4BF690
:1025C000FF731A4002827047C1F30802828070478D
:1025D00001468888C0F308007047818941F00101F5
:1025E00081817047028BD2B20283028B42EA0122C0
:1025F00002837047028B02F47F420283028B0A43FC
:102600000283704721B1828A42F02002828204E074
:10261000828A4FF6DF731A408282704721B1828A24
:1026200042F01002828204E0828A4FF6EF731A4071
:102630008282704721B1828A42F00802828204E0DD
:10264000828A4FF6F7731A408282704721B18289DD
:1026500042F40042828103E08289C2F30E02828149
:10266000704721B1828A42F40062828204E0828A49
:102670004FF2FF731A4082827047828A4FF6FB73D3
:102680001A408282828A0A438282704721B1828AFA
:1026900042F00202828204E0828A4FF6FD731A4001
:1026A0008282704702460020B1F5007F00D100BF52
:1026B00013880B400BB1012000E00020704701F4AB
:1026C0000072B2F5007F00D100BFCA43028070479C
:1026D00070B50246002400230025002040F66A164B
:1026E000B14200D100BFC1F3421501F01F03012622
:1026F00006FA03F3012D02D19689334006E0022D3C
:1027000002D1168A334001E0968A33400C1201262A
:1027100006FA04F41688344013B10CB1012000E02D
:10272000002070BD10B50022002340F66A14A142BB
:1027300000D100BF0A1201249440A3B2DC430480FC
:1027400010BD000000380140004400400048004037
:10275000004C00400050004070B504460725012C95
:102760007DD10020FD49086001F0E0F829E3002058
:1027700001F0B4FD0446012C04D1681CC5B2082D3B
:1027800000DB0025F6480278F6A1FA4805F0E6FBE2
:102790000C23F84A0021082001F0A2F9F64802882B
:1027A000F6A1F44805F0DAFB0C23F24A01210820D7
:1027B00001F096F9F5480288F5A1EE4805F0CEFB48
:1027C0000C23EC4A0221082001F08AF9F44802881F
:1027D000F4A1E84805F0C2FB0C23E64A03210820D7
:1027E00001F07EF9F3480288F3A1E24805F0B6FB58
:1027F0000C23E04A0421082001F072F9F248028813
:10280000F2A1DC4805F0AAFB0C23DA4A05210820D6
:1028100001F066F9F1480288F1A1D64805F09EFB67
:102820000C23D44A0621082001F05AF9F048028806
:10283000F0A1D04805F092FB0C23CE4A07210820D6
:1028400001F04EF9002D31D10C23EEA200210846F3
:1028500001F046F90C23ECA20121002000E0B2E2D5
:1028600001F03EF90C23E7A20221002001F038F923
:102870000C23E4A20321002001F032F90C23E1A291
:102880000421002001F02CF90C23DEA205210020F8
:1028900001F026F90C23DBA20621002001F020F92B
:1028A0000C23D8A20721002001F01AF9012D2FD105
:1028B0000C23D4A20021084601F012F90C23D1A266
:1028C0000121002001F00CF90C23CFA202210020ED
:1028D00001F006F90C23CBA20321002001F000F93E
:1028E0000C23C8A20421002001F0FAF80C23C5A291
:1028F0000521002001F0F4F80C23C2A206210020DB
:1029000001F0EEF80C23BFA20721002001F0E8F847
:10291000022D2FD10C23BBA20021084601F0E0F8C4
:102920000C23B8A20121002001F0DAF80C23B5A293
:102930000221002001F0D4F80C23B3A203210020CF
:1029400001F0CEF80C23AFA20421002001F0C8F85A
:102950000C23ACA20521002001F0C2F80C23A9A28F
:102960000621002001F0BCF80C23A6A207210020BC
:1029700001F0B6F8032D2FD10C23A2A200210846A6
:1029800001F0AEF80C239FA20121002001F0A8F86D
:102990000C239CA20221002001F0A2F80C2399A292
:1029A0000321002001F09CF80C2397A204210020B1
:1029B00001F096F80C2393A20521002001F090F875
:1029C0000C2390A20621002001F08AF80C238DA28E
:1029D0000721002001F084F8042D2FD10C2389A2B7
:1029E0000021084601F07CF80C2386A2012100207A
:1029F00001F076F80C2383A20221002001F070F888
:102A00000C2380A20321002001F06AF80C237DA290
:102A10000421002001F064F80C237BA20521002092
:102A200001F05EF80C2377A20621002001F058F88F
:102A30000C2374A20721002001F052F8052D2FD19C
:102A40000C2370A20021084601F04AF80C236DA265
:102A50000121002001F044F80C236AA20221002089
:102A600001F03EF80C2367A20321002001F038F8A2
:102A70000C2364A20421002001F032F80C2361A28F
:102A80000521002001F02CF80C235FA20621002074
:102A900001F026F80C235BA20721002001F020F8AA
:102AA000062D2FD10C2357A20021084601F018F85B
:102AB0000C2354A20121002001F012F80C2351A292
:102AC0000221002001F00CF80C234EA2032100206B
:102AD00001F006F80C234BA20421002001F000F8BD
:102AE0000C2348A20521002000F0FAFF0C2345A288
:102AF0000621002000F0F4FF0C2343A20721002050
:102B000000F0EEFF072D28D10C233FA2002108463C
:102B100000F0E6FF0C233BA20121002000F0E0FFC3
:102B20000C2338A20221002000F0DAFF0C2335A28A
:102B30000321002000F0D4FF0C2332A20421002046
:102B400000F0CEFF0C232FA20521002000F0C8FFCB
:102B50000C232CA20621002058E060E0A0012142B5
:102B60002A000020576F726B696E67206D643A25EA
:102B700034640000241200203E000020415F5465B0
:102B80006D70202020203A25346400004000002091
:102B9000415F48756D20202020203A2534640000D4
:102BA00042000020415F70726520202020203A25DD
:102BB0003464000044000020415F677A5F76616CF6
:102BC00020203A253464000046000020415F6D3229
:102BD0005F76616C20203A253464000048000020B4
:102BE000415F6D375F76616C20203A2534640000C8
:102BF0004A000020415F6D3133355F76616C3A25C4
:102C000034640000200000003E00000000F068FF77
:102C10000C23AFF210020721002000F061FF6DB914
:102C2000032C04D1FC480088401CFB490880042C7C
:102C300004D1F9480088401EF7490880012D0DD1C4
:102C4000032C04D1F5480088401CF4490880042C6A
:102C500004D1F2480088401EF0490880022D0DD1B1
:102C6000032C04D1EE4800881430ED490880042C70
:102C700004D1EB4800881438E9490880032D0DD1B0
:102C8000032C04D1E74800883230E6490880042C40
:102C900004D1E44800883238E2490880042D0DD17F
:102CA000032C04D1E04800883230DF490880042C2E
:102CB00004D1DD4800883238DB490880052D0DD16C
:102CC000032C04D1D94800883230D8490880042C1C
:102CD00004D1D64800883238D4490880062D0DD159
:102CE000032C04D1D24800883230D1490880042C0A
:102CF00004D1CF4800883238CD490880072D14D13F
:102D0000032C04D1CB480078401CCA490870042C1D
:102D100004D1C8480078401EC6490870C5480078EC
:102D2000022802DB0020C3490870022C49D100F0C0
:102D3000FDFD3E220021102000F0EFFE3F22002189
:102D4000202000F0EAFE40220021302000F0E5FEC5
:102D500041220021402000F0E0FE422200215020CC
:102D600000F0DBFE43220021602000F0D6FE0222AC
:102D7000A949B14801F05FFF0222A849AE48801C72
:102D800001F059FF0222A649AB48001D01F053FF94
:102D90000222A449A848801D01F04DFF0222A24949
:102DA000A548083001F047FF0222A049A2480A3096
:102DB00001F041FF02229E499F480C3001F03BFF89
:102DC00000E0D4E400BF70BD10B50446032C02D16E
:102DD000012003F0C4FA042C02D1002003F0BFFA52
:102DE00010BD10B50446954A9549964801F098FEE5
:102DF0009448006804F04CFE934908809349944835
:102E000001F04FFB012000F0A8FFC0F58050914970
:102E10000880052000F0A1FF8F490880062000F0FF
:102E20009CFF8E490880072000F097FFC0F5805076
:102E30008B49088010BD10B541F61F41092001F0F3
:102E400053FC4FF4165000F06BFB1E21854804F034
:102E50009AFB03F06DFA10BD002500F0F8FA02228B
:102E600081497548801E01F0D5FE7F4800884FF6E5
:102E7000FF71884248D141F2B3507B4908801E203F
:102E80006549088023206549088040F2DC50644988
:102E90000880644908804FF47A7063490880634968
:102EA00008804FF42F606249088002226E49624810
:102EB000801E01F0C0FE022257495F4801F0BBFEB0
:102EC000022256495C48801C01F0B5FE022254499A
:102ED0005948001D01F0AFFE022252495648801D9C
:102EE00001F0A9FE022250495348083001F0A3FE28
:102EF00002224E4950480A3001F09DFE02224C4900
:102F00004D480C3001F097FE022243494A4801F037
:102F100081FE022241494848801C01F07BFE0222CA
:102F20003F494548001D01F075FE02223D494248D7
:102F3000801D01F06FFE02223B493F48083001F03E
:102F400069FE022239493C480A3001F063FE022240
:102F5000374939480C3001F05DFE4FF4A060FDF7B1
:102F6000F5F900F0B7FF01F0A5F901F0C6FA01F09C
:102F7000E9FA01F0ECF800F03CFE00F0D7FC01F0BB
:102F8000EFFB4FF4165000F083FB00F0A7FE01F0BA
:102F9000FFFAFFF750FFFBE10020FFF722FF2D486B
:102FA000008820490988884209DC2248007830B925
:102FB00000202E49086001202D4908700EE02548A8
:102FC000008818490988884208DD1A48007828B91D
:102FD000012026490860002025490870254800780E
:102FE0002349097888420DD01248007850B94FF42F
:102FF000877203211E48007801F0E3FA1C4800782C
:103000001C4908700B480078012842D11548007807
:1030100008B9012031E02FE03E00002040000020F0
:10302000420000204400002046000020480000200C
:103030004A0000202A0000200AE000085400002076
:10304000500000204C00002032000020F21100202F
:10305000F11100203400002036000020380000204C
:103060003A0000201C1C00203C000020BC01214232
:103070002D0000202E0000200020C6490860C64810
:10308000D0F8A00108B9012000E00020C1491C3996
:103090000860C2480078C2490988884217DAC148E6
:1030A0000078C1490988884211DDC0480088C049BC
:1030B000098888420BDDBF480088BF4909888842DB
:1030C00005DABE480088BE490988884204DB012031
:1030D000B0491C39086003E00020AE491C39086083
:1030E000002001F0FBF80446022C04D1B54800781A
:1030F000401CB4490870B349087800EBD0714910FE
:10310000A0EB410100297DD10A2D7BDB0120AE49D6
:103110000870AE480078097888422DD000F006FC8F
:10312000A9480078A94908703E220021084600F00D
:10313000F4FC3F220021102000F0EFFC402200218F
:10314000202000F0EAFC41220021302000F0E5FCC4
:1031500042220021402000F0E0FC432200215020C8
:1031600000F0DBFC44220021602000F0D6FC452268
:103170000021702000F0D1FC00220221104600F056
:10318000CCFC02221146102000F0C7FC83480278D4
:103190008FA1914804F0E2FE10238F4A02212020E3
:1031A00000F09EFC01220221402000F0B6FC022229
:1031B0001146502000F0B1FC7A48027887A1864879
:1031C00004F0CCFE1023844A0221602000F088FC29
:1031D00003220421002000F0A0FC0422114610204C
:1031E00000F09BFC7F4802887FA17B4804F0B6FE7C
:1031F0001023794A0421202000F072FC05220621C8
:10320000002000E01DE000F088FC0622114610209E
:1032100000F083FC07220621202000F07EFC08221B
:103220000621302000F079FC7148028871A16A48BB
:1032300004F094FE1023684A0621402000F050FC60
:1032400096E06049087800EBD0714910A0EB41018D
:103250000129F5D10A2DF3DB02205B4908705B4898
:1032600000780978884223D000F060FB5648007847
:10327000564908703E220021102000F04EFC3F22EB
:103280000021202000F049FC40220021302000F0E5
:1032900044FC41220021402000F03FFC422200215A
:1032A000502000F03AFC43220021602000F035FC61
:1032B0000D220221002000F030FC0E2202211020FD
:1032C00000F02BFC0F220221202000F026FC10220F
:1032D0000221302000F021FC3648028845A13E48FA
:1032E00004F03CFE10233C4A0221402000F0F8FB91
:1032F00011220421002000F010FC122204211020D1
:1033000000F00BFC13220421202000F006FC142204
:103310000421302000F001FC2848028835A12E4805
:1033200004F01CFE10232C4A0421402000F0D8FB9E
:1033300009220621002000F0F0FB0A2206211020BD
:1033400000F0EBFB0B220621202000F0E6FB0C2214
:103350000621302000F0E1FB1448028825A11E4818
:1033600004F0FCFD10231C4A0621402000F0B8FBAD
:1033700001F062FDE0B2FFF727FD204803F03FFABD
:10338000E0B2FFF7E9F9681CC5B2642000F09CF8D0
:1033900002E60000BC01214200002142F1110020A0
:1033A0003E000020F2110020400000203A000020E2
:1033B0004A0000203600002046000020380000208F
:1033C000480000202C0000202F00002030000020AA
:1033D0003A25326443000000241200203A2532646A
:1033E00025250000320000203A2534646870610011
:1033F000340000203A25346470706D001C1C0020DD
:10340000704700BFFEE700BFFEE700BFFEE700BF5A
:10341000FEE770477047704730BF704772B670471D
:1034200062B6704710B56FF00400FCF7DEFF4FF096
:10343000E020006940F002004FF0E02108610846FA
:10344000006940F0010008610920486110BD10B515
:103450006FF00400FCF7C9FF2D4800682D49B0FB50
:10346000F1F02D4908700846007800EB4001C1EBEF
:10347000C0104FF6FF7101EAC0002849088010BD56
:103480000146254A12784A434FF0E0235A61002250
:103490009A611A46126942F001021A6100BF4FF0A8
:1034A000E022106900F001021AB100F48032002A13
:1034B000F5D04FF0E022126922F001024FF0E02334
:1034C0001A6100229A6170470146144A12884A43E1
:1034D0004FF0E0235A6100229A611A46126942F0C5
:1034E00001021A6100BF4FF0E022106900F00102F2
:1034F0001AB100F48032002AF5D04FF0E0221269B0
:1035000022F001024FF0E0231A6100229A61704715
:103510000000002000127A00580000205A0000200D
:1035200010B586B0044601210420FDF79FFF01215C
:103530004804FDF7A8FF5248FEF70AFF0420ADF843
:10354000100003208DF8120018208DF8130004A934
:103550004C48FDF7CFFC0820ADF8100004208DF892
:10356000130004A94748FDF7C5FC00940020ADF8FE
:103570000400ADF80600ADF80800ADF80C000C2012
:10358000ADF80A0069463E48FEF725FF01213C4898
:10359000FEF7ADFF012240F225513948FEF7B3FF97
:1035A00026208DF8140002208DF8150003208DF8D8
:1035B000160001208DF8170005A8FCF7CCFE40216D
:1035C0002F48FFF77CF806B010BD0FB438B505A83A
:1035D00000902D48009A049904F0D4FC002000903B
:1035E000294803F0DBFF85B200240DE000BF402135
:1035F0002348FFF757F80028F9D02348015D2048F9
:10360000FEF7E2FF601C84B2AC42EFDB38BC5DF831
:1036100014FB70B504460D4629462046FEF7D4FF3C
:1036200000BF40212046FFF73DF80028F9D0402197
:103630002046FFF744F870BD70B505460C4604E01F
:1036400014F8011B2846FFF7E4FF20780028F7D183
:1036500070BD08B540F225510948FFF739F868B147
:1036600040F225510648FFF75DF80548FEF7B0FF28
:10367000C0B200900121684601F0B0FC08BD000016
:1036800000440040000801409A14002000BF704729
:1036900010B586B00446012144F20400FDF7E6FEB1
:1036A0004FF40070ADF8140003208DF816001820B8
:1036B0008DF8170005A94748FDF71CFC4FF4806002
:1036C000ADF8140004208DF8170005A94148FDF756
:1036D00011FC25208DF8000003208DF801008DF8E5
:1036E000020001208DF803006846FCF734FE0194C7
:1036F0000020ADF80800ADF80A00ADF80C00ADF8F8
:1037000010000C20ADF80E0001A93348FEF763FE4F
:10371000012240F225513048FEF7F5FE01212E48E6
:10372000FEF7E5FE40212C48FEF7C9FF06B010BDAC
:1037300010B540F225512848FEF7CAFF10B32648BD
:10374000FEF746FFC4B22548008800F40040C8B91F
:103750002248008800F4804060B10A2C03D0002089
:103760001E49088020E01D48008840F400401B49A5
:10377000088019E00D2C06D11848008840F48040DC
:103780001649088010E015480088C0F30D00144960
:103790000C5412480088401C1049088008460088D4
:1037A000C72801DD0020088010BD70B504460D4615
:1037B000E1B20948FEF708FF00BF40210648FEF7C6
:1037C00071FF0028F9D040210348FEF778FF20461A
:1037D00070BD000000080140003801406400002076
:1037E000F216002070B505460C4600F08FFB284607
:1037F00000F0CEFB00F07BFC002000F0C9FB00F0E5
:1038000076FCE0B200F0C4FB00F071FC00F0A2FB1B
:1038100070BD70B505460C4600F078FB284600F0F8
:10382000B7FB00F064FC402000F0B2FB00F05FFC4E
:10383000E0B200F0ADFB00F05AFC00F08BFB70BD75
:1038400070B504460D4625B121467820FFF7E1FF0B
:1038500003E021467820FFF7C5FF70BD70B506462E
:10386000002418E004F1B0000021FFF7E9FF002177
:103870000846FFF7E5FF00211020FFF7E1FF0025D4
:1038800005E001213046FFF7DBFF681CC5B2802D43
:10389000F7DB601CC4B2082CE4DB70BD06E041F627
:1038A000650100E0491E0029FCD1401E0028F6D128
:1038B0007047014605E0002001E0421CD0B27B28A1
:1038C000FBDB0A1EA1F10101F5D1704770B504467A
:1038D0000D4605F1B0000021FFF7B2FF102141EACB
:1038E00014100021FFF7ACFF04F00F000021FFF7D8
:1038F000A7FF70BD10B500218D20FFF7A1FF0021AB
:103900001420FFF79DFF0021AF20FFF799FF10BDA6
:1039100010B500218D20FFF793FF00211020FFF745
:103920008FFF0021AE20FFF78BFF10BD70B5002484
:1039300018E004F1B0000021FFF782FF00210846E3
:10394000FFF77EFF00211020FFF77AFF002505E03A
:1039500001210020FFF774FF681CC5B2802DF7DB42
:10396000601CC4B2082CE4DB70BD70B5002418E004
:1039700004F1B0000021FFF763FF00210846FFF7C4
:103980005FFF00211020FFF75BFF002505E001210C
:103990000846FFF755FF681CC5B2802DF7DB601C99
:1039A000C4B2082CE4DB70BD2DE9F04707460E4693
:1039B0009046994600250024A8F12000C5B27F2F2B
:1039C00002DD0027B01CC6B2B9F1100F24D1314678
:1039D0003846FFF77BFF002408E004EB0511BC4AE2
:1039E000505C0121FFF72CFF601CC4B2082CF4DBF3
:1039F000701CC1B23846FFF769FF002409E004EBF0
:103A000005110831B24A505C0121FFF719FF601C13
:103A1000C4B2082CF3DB12E031463846FFF756FFFC
:103A200000240AE005EB4501AA4A02EB4101085DCA
:103A30000121FFF705FF601CC4B2062CF2DBBDE8D4
:103A4000F08710B50246012000E050430B1EA1F1A3
:103A50000104E1B2F9D110BD2DE9FF5F074691469F
:103A60001E460E9D4FF0000A002435E0301B401E1C
:103A7000C1B20A20FFF7E5FFB9FBF0F00A21B0FB65
:103A8000F1F201FB1208BAF1000F14D1701EA0422E
:103A900011DDB8F1000F0CD1AB4605EBDB7149101D
:103AA00001FB0471C8B22B4620220199FFF77CFF6D
:103AB00010E04FF0010AAB4605EBDB71491001FB4A
:103AC0000471C8B208F13001CAB22B460199FFF760
:103AD0006BFF00BF601CC4B2B442C7DBBDE8FF9FF0
:103AE0002DE9F04104460F461546984600260FE0A2
:103AF000AA5D434639462046FFF756FF04F1080009
:103B0000C4B2782C02DD0024B81CC7B2701CC6B247
:103B1000A85D0028ECD1BDE8F0812DE9F041804698
:103B20000E461546002731464046FFF7CFFE0024DB
:103B30000AE0694A02EB8511085D0121FFF780FE6A
:103B4000781CC7B2601CC4B2102CF2DB701CC1B26E
:103B50004046FFF7BBFE00240CE06900491C5E4AAA
:103B600002EB4111085D0121FFF76AFE781CC7B224
:103B7000601CC4B2102CF0DBBDE8F0812DE9F05FD1
:103B800006460F4690461C46DDF828A04FF0000B75
:103B9000E11704EB5171C910A4EBC10131B9204602
:103BA000E11704EB5171C1F3C70506E02046E117A8
:103BB00004EB5171C910491CCDB23D4615E02946B0
:103BC0003046FFF783FEB1460BE059460BF1010B7F
:103BD0001AF801000121FFF733FE09F1010000F09E
:103BE000FF09C145F1DB681CC5B2A542E7DBBDE8B2
:103BF000F09F10B50021AE20FFF722FE00210846FD
:103C0000FFF71EFE00211020FFF71AFE00214020C2
:103C1000FFF716FE0021B020FFF712FE00218120E1
:103C2000FFF70EFE0021FF20FFF70AFE0021A12072
:103C3000FFF706FE0021A620FFF702FE0021A820C4
:103C4000FFF7FEFD00213F20FFF7FAFD0021C8200D
:103C5000FFF7F6FD0021D320FFF7F2FD0021084613
:103C6000FFF7EEFD0021D520FFF7EAFD00218020BF
:103C7000FFF7E6FD0021D820FFF7E2FD0021052037
:103C8000FFF7DEFD0021D920FFF7DAFD0021F1204A
:103C9000FFF7D6FD0021DA20FFF7D2FD0021122028
:103CA000FFF7CEFD0021DB20FFF7CAFD0021302009
:103CB000FFF7C6FD00218D20FFF7C2FD0021142073
:103CC000FFF7BEFD0021AF20FFF7BAFD10BD0000D9
:103CD000289A0008009800086600002000B587B008
:103CE00001214FF40170FDF7C1FB00208DF81B008E
:103CF000E220ADF8180003208DF81A0006A96D48DF
:103D0000FDF7F8F86C48FCF78FFB00208DF80900F0
:103D100004904FF4602003900020019001208DF862
:103D2000140000208DF8080001A96348FCF7A3FBEC
:103D300001216148FCF7CBFB5F48FCF7EAFB00BFC1
:103D40005D48FCF7EBFB0028FAD15B48FCF7F0FB81
:103D50005948FCF7F2FB07B000BD10B50446072335
:103D6000012221465448FCF71EFC01215248FCF771
:103D7000EEFB00BF02215048FCF75AFD0028F9D0A5
:103D80004D48FCF777FC10BD3EB505460C460020BB
:103D90000090019002904949086024E002204849BF
:103DA000086017E047484549096800EBC1004449ED
:103DB000096830F811104348404A126800EBC2020B
:103DC0003F480068401C22F810103D480068401E23
:103DD0003B4908603A4800680028E3DA3748006841
:103DE000401C36490860354800680628D6DB0020AC
:103DF0003249086042E031490968685CFFF7ADFF6D
:103E00002E49096824F811002C48006834F8101075
:103E10002C482A4A126820F83210002028490860ED
:103E200017E028482549096800EBC10024490968C2
:103E300030F81110214A12683DF81200084481B28E
:103E40001E4A12682DF812101D480068401C1C49BB
:103E500008601B4800680428E3DB184A12683DF834
:103E60001200C11700EB91718910144A126824F8EE
:103E7000121012480068401C104908600F48006882
:103E80000628B8DB00200D4908600BE00B480068ED
:103E900034F810100CA004F051F808480068401CD9
:103EA00006490860054800680628EFDB08A004F012
:103EB00045F83EBD0008014000240140E811002003
:103EC000EC110020BA1700202564202020000000FB
:103ED0000D0A000008B501210420FDF7C7FA4FF4D0
:103EE0008070ADF8000010208DF8030003208DF8DD
:103EF000020069460448FCF7FDFF4FF48071024858
:103F0000FDF7A7F808BD00000008014010B5E8481B
:103F1000006820F47040E64908600846006840F4F4
:103F200040500860C914E248001FFDF790F84FF4B4
:103F30008061DF48001FFDF78AF84FF40061DC481C
:103F4000001FFDF786F84FF48061D948001FFDF788
:103F500080F810BD10B5D648006820F47040D449F0
:103F600008600846006840F440500860C914D04812
:103F7000001FFDF76EF84FF48061CD48001FFDF77C
:103F800066F84FF40061CA48001FFDF760F810BDE5
:103F900070B50446C648006820F47040C449086003
:103FA0000846006840F440500860002527E004F00F
:103FB000800030B14FF40061BD48001FFDF747F8A5
:103FC00005E04FF40061BA48001FFDF742F84FF4D6
:103FD0008061B748001FFDF73AF84FF48061B4489C
:103FE000001FFDF736F8072D05D14FF40061B048EA
:103FF000001FFDF72CF86006040E681CC5B2082DE2
:10400000D5DB70BD10B5AA48006820F47040A849FF
:1040100008600846006840F440500860C914A4488D
:10402000001FFDF716F84FF48061A148001FFDF74F
:104030000EF84FF480619E48001FFDF70AF84FF418
:1040400000619B48001FFDF702F810BD10B59848AD
:10405000006820F47040964908600846006840F403
:1040600040500860C9149248001FFCF7F0FF4FF45D
:1040700080618F48001FFCF7EAFF4FF480618C4895
:10408000001FFCF7E6FF10BD70B5054688480068C4
:1040900020F47040864908600846006840F40040FB
:1040A00008600024002618E06006040E4FF48061CA
:1040B0007F48001FFCF7CBFF4FF400617C48001FD6
:1040C000FCF7ABFF08B1601CC4B24FF480617848C4
:1040D000001FFCF7BEFF701CC6B2082EE4DB15B94A
:1040E000FFF7B4FF01E0FFF78DFF204670BD10B56C
:1040F0006F48006820F470406D4908600846006809
:1041000040F400400860C9146948001FFCF79FFF95
:104110004FF480616648001FFCF799FF07E0601CC0
:10412000C4B2FA2C03DDFFF715FF012010BD4FF4D8
:1041300000615F48001FFCF770FF0028EFD14FF4CB
:1041400080615B48001FFCF784FF0020EEE708B5A4
:1041500001210820FDF78AF94FF44060ADF8000016
:1041600003208DF8020014208DF8030069465048A2
:10417000001FFCF7BFFEFFF7EDFE08BD70B504465B
:10418000FFF7E5FFFFF7C2FE2046FFF701FFFFF74D
:10419000AEFF0546FFF7DEFE284670BD70B504464B
:1041A0000D460026FFF7B2FE2046FFF7F1FEFFF7AF
:1041B0009EFF2846FFF7ECFEFFF799FFFFF7A6FEEC
:1041C00044F00100FFF7E4FEFFF791FF0020FFF746
:1041D0005BFF0646FFF7BEFE304670BD2DE9F0419D
:1041E0000746884615461E460024FFF78FFE3846D0
:1041F000FFF7CEFEFFF77BFF4046FFF7C9FEFFF754
:1042000076FFFFF783FE47F00100FFF7C1FEFFF7DF
:104210006EFF00BF0CE0681EA04204D10020FFF733
:1042200033FF305503E00120FFF72EFF3055641CAB
:10423000AC42F0DBFFF78EFEBDE8F08170B50646BC
:104240000C461546FFF762FE3046FFF7A1FEFFF76A
:104250004EFF2046FFF79CFEFFF749FF2846FFF779
:1042600097FEFFF744FFFFF775FE70BD2DE9F041A3
:1042700080460D4616461F460024FFF747FE40467F
:10428000FFF786FEFFF733FF2846FFF781FEFFF7B3
:104290002EFF00BF05E0385DFFF77AFEFFF727FF2E
:1042A000641CB442F7DBFFF755FEBDE8F081000067
:1042B000040C014008B501210820FDF7D7F80320C0
:1042C0008DF802004FF47070ADF8000048208DF8B2
:1042D000030069463148FCF70DFE08BD10B50446E1
:1042E00014B101202E4908702D480078002839D0DB
:1042F00040212A48FCF791FE80B180212748FCF735
:104300008CFE58B14FF480712448FCF786FE28B12A
:104310004FF400712148FCF780FE18BB0A20FFF71C
:10432000D3F800201E49087040211C48FCF775FE98
:1043300008B9012010BD80211848FCF76EFE08B9AD
:104340000220F7E74FF480711448FCF766FE08B9C5
:104350000320EFE74FF400711048FCF75EFED8B978
:104360000420E7E740210D48FCF757FE012813D150
:1043700080210A48FCF751FE01280DD101020748AF
:10438000FCF74BFE012807D141020448FCF745FE2B
:10439000012801D1024908700020CBE7000C014040
:1043A000F011002010B56448006820F470206249C4
:1043B00008600846006840F44030086000205F490B
:1043C00008601420FFF780F801205D49C1F8B001B2
:1043D0001E20FFF755F810BD10B5002456480068A0
:1043E00020F47020544908600846006840F400201A
:1043F000086004E0601CC4B20120FFF741F84F4898
:104400008038006808B1642CF4DB642C01DB0120E7
:1044100010BD002404E0601CC4B20120FFF730F896
:1044200046488038006808B9642CF4DB642C01DB52
:104430000120EDE70020EBE710B5002404E0601C4C
:10444000C4B20120FFF71CF83C488038006808B16E
:10445000642CF4DB002404E0601CC4B20120FFF7EC
:104460000FF836488038006808B9642CF4DB28203F
:10447000FFF706F831488038006808B1012010BD08
:104480000020FCE770B50024002506E06006040E5D
:10449000FFF7D2FF0443681CC5B2082DF6DB2046A7
:1044A00070BD7CB505460E46FFF77CFFFFF794FF15
:1044B000F8B9002405E0FFF7E5FF0DF80400601CE3
:1044C000C4B2052CF7DB9DF800009DF801100844EC
:1044D0009DF8021008449DF8031008449DF804104C
:1044E000884208D19DF8000030709DF802002870C5
:1044F00001E001207CBD0020FCE708B5012104207B
:10450000FCF7B4FF4FF48050ADF8000010208DF898
:10451000030003208DF8020069460748001FFCF7DE
:10452000E9FC4FF480510448001FFCF790FDFFF7B1
:1045300039FFFFF751FF08BD04080140B0012142D7
:104540000000214208B501210420FCF78FFF012162
:104550000846FCF78BFF01210B48FCF79CFD4FF44C
:104560000040ADF8000010208DF8030003208DF806
:10457000020069460548FCF7BDFC4FF400410348C2
:10458000FCF765FD08BD0000000230000008014096
:1045900008B501210820FCF769FF4FF47040ADF821
:1045A000000010208DF8030003208DF802006946FA
:1045B0004A48FCF79FFC4FF470414848FCF749FD1E
:1045C00008BD70B504460E461546002C41D13BE0AF
:1045D00001204349086000204249C1F8B801404920
:1045E000083908603F49C1F8B0013046FEF76CFF5A
:1045F00000203B4908600120091F08600020091FB6
:1046000008603849C1F8B0013046FEF75DFF002070
:1046100033490860091F08600120091F0860002055
:104620003049C1F8B0013046FEF74EFF00202C495A
:104630000860091F0860091F086001202949C1F8A6
:10464000B0013046FEF740FF281EA5F101018DB2F2
:10465000BED1012C41D13BE0002021490860214915
:10466000C1F8B8011E490839086001201D49C1F888
:10467000B0013046FEF728FF002019490860091FE5
:1046800008600120091F086000201649C1F8B00128
:104690003046FEF719FF0020114908600120091F6C
:1046A00008600020091F08600E49C1F8B0013046BB
:1046B000FEF70AFF01200A4908600020091F086070
:1046C000091F08600749C1F8B0013046FEF7FCFE3B
:1046D000281EA5F101018DB2BED170BD000C0140B4
:1046E000BC812142008021427FB505460C46012154
:1046F0000220FCF7C8FEADF80850ADF804400020D9
:10470000ADF80A00ADF8060001A91448FCF7E6FF71
:10471000012211461148FDF758FB1D208DF80000BD
:1047200000208DF8010003208DF8020001208DF893
:1047300003006846FBF70FFE01210848FDF72AFB3E
:104740007FBD10B501210548FDF7EDFD28B1012120
:104750000248FDF7F9FD00F093FB10BD0004004096
:1047600010B5FE48007808B1012010BDD021EC2022
:10477000FFF714FDFA490870FA4B18228821EC2043
:10478000FFF72CFDB322F421EC20FFF757FD142294
:10479000F521EC20FFF752FD0120F049087000BF21
:1047A000E3E71CB56B460622F721EC20FFF716FD68
:1047B0009DF8000000039DF8011040EA01109DF8EB
:1047C000021040EA1110E84908609DF80300000358
:1047D0009DF8041040EA01109DF8051040EA111000
:1047E000E24908601CBD30B50146CC10DD4D2D8876
:1047F000A4EB4504DB4DB5F902506C43E212D94CF1
:104800002488C4EB211464432413D64DB5F9045015
:104810006C43A313D418D34DAC612C46A46904EBAC
:1048200084048034201230BD2DE9F14F82B0CD4890
:104830008069C1174FF4FA33C41A61F10005A4FB73
:10484000041005FB040004FB0502C648B0F9100083
:104850004FEAE07CA1FB008A02FB00A001FB0C09EF
:10486000C048B0F90E00C117A0FB042301FB0431BE
:1048700000FB0510400440EAD230510411EB080857
:1048800040EB0909B748B0F90C0018F1000849EBF2
:10489000C009A4FB041005FB040004FB0502B14899
:1048A000B0F90A004FEAE07CA1FB003A02FB00A04D
:1048B00001FB0C004FEA132141EA00614FEA20227C
:1048C000A848B0F908004FEAE073A446A0FB0CBE6C
:1048D00003FB04E300FB05304FEA003040EA1B50C5
:1048E0004FEA0B33CC1842EB0005231C45F5004C76
:1048F0009C49C8880022A3FB00A10CFB001003FB0D
:1049000002014C10CD17002184EA010069400843E0
:1049100001D1BDE8FE8F0298C0F58010C71706468A
:10492000F80740EA5600F207B2EB080160EB090213
:1049300040F635400023A1FB00CA02FB00A001FBAA
:10494000030022462B46CDE900C06046019902F0E3
:10495000CAFD06460F468348B0F91600C217710B10
:1049600041EAC74C7B13A0FB0C1A02FB0CA200FB14
:104970000322700B40EAC74C7B13A1FB0C0A02FB1D
:104980000CA201FB0321400E40EAC1144D167548EC
:10499000B0F91400C117A0FB062301FB063100FB90
:1049A0000711D00C40EA41384FEAE149311947EB91
:1049B000050011EB080140EB0900090A41EA00611A
:1049C0006848B0F9120000010E183046A1E72DE941
:1049D000F05F0446894600210D460E468A4664492A
:1049E000644A127851F82200002103F0ADF813D187
:1049F0005F49604A1278206841F822002068C9F8AF
:104A000000005C480078401CC0B25A490870052874
:104A100053DB0020087050E05648007850B1554AEA
:104A20001278521E524B53F82210206802F00FFEEB
:104A3000834605E04E4A1169206802F008FE83466D
:104A4000584603F039F821F0004107464FF0204264
:104A5000494B03F045F80FD24549464A1278206881
:104A600041F8220043480078401CC0B24149087018
:104A7000052801DB002008704FF0000A0FE03C49D8
:104A800051F82A0003F018F807462A46334602F088
:104A900054FE05460E460AF1010000F0FF0ABAF185
:104AA000050FECDB0022354B2846314602F05EFF55
:104AB000074603F02DF8C9F80000BDE8F09F2DE986
:104AC000FF5F82460021DAF8000003F047F825D2A4
:104AD0002B48DAF8001002F0F2FD834602F0ECFFFA
:104AE000284A294BCDE9000104F078F90646002256
:104AF000264B02F0C3FE4FF0C042254BCDE9020128
:104B000002F0C2FE80464FF00042224B02F02EFF20
:104B1000044602F0FDFF04B0BDE8F09F0020FAE774
:104B20002DE9F05F044689469246FFF73AFE0F48AA
:104B30000068FFF758FE834602F08CFF074600220C
:104B4000154B02F013FF054602F0E2FF134908601F
:104B500005480068FFF768FE834621E0F511002054
:104B6000F4110020EC170020F8110020FC110020A7
:104B700008180020001200209999B93F0000144045
:104B8000CDEC7D4428610C878A5AC83F0000F03F75
:104B900066A27240BE9F7A3F000059400412002076
:104BA00002F069FF054600220C4B02F0DFFE0746CB
:104BB00002F0AEFF0A49086021460948FFF707FFE7
:104BC00008480068C9F800000548006820602046D1
:104BD000FFF775FFCAF80000BDE8F09F0000D9405C
:104BE00008120020041200200146088870472DE9B1
:104BF000F04105460E461746002407E036F814102B
:104C00002846FBF7A0FFAD1C601C84B2BC42F5DB5C
:104C1000BDE8F08130B503460C461546002207E09A
:104C20001846FFF7E1FF24F812009B1C501C82B2CB
:104C3000AA42F5DB30BD2DE9F05F80468A46174673
:104C4000B8F1006F02D33748804501D3BDE8F09F2B
:104C5000FBF731FEA8F1006B4FEA9B25CBF3480927
:104C6000C9F50074A74200DC3C464DE04FF00061FE
:104C700001EB85208A142C49FFF7CCFF00260BE0BE
:104C800009EB0600284931F810004FF6FF71884201
:104C900000D003E0701C86B2A642F1DB00BFA64242
:104CA0001BDA4FF0006101EB8520FBF749FE00267F
:104CB00008E03AF8160006EB09011B4A22F8110039
:104CC000701C86B2A642F4DB4FF0006101EB852038
:104CD0008A141549FFF78BFF04E0224651464046EF
:104CE000FFF785FFA74200D10FE06D1C4FF00009D0
:104CF0000AEB440AA044381B87B2B7F5007F02DDF7
:104D00004FF4007400E03C46B0E700BFFBF7DFFD66
:104D100000BF9BE713B50446012201A92046FFF717
:104D20008AFF1CBD000001081C1800202DE9FF5F50
:104D300007460D4693464FF000082E46A9462C46DE
:104D4000AA4607B125B94FF0FF3004B0BDE8F09F87
:104D50004FF000086BE0781C10F80800132860D2B0
:104D6000DFE800F03334355F5F363738395F5F5F37
:104D70005F3A4453400A130030786149087008468E
:104D8000017860A003F0DAF84CE070785C49487074
:104D90000846417860A003F0D1F865480078012802
:104DA00012D157484078012807D1554948784FF427
:104DB00087720321FFF705FC06E0514948784FF45C
:104DC00087720321FFF7FDFB2CE02BE02AE029E0AE
:104DD00028E027E026E025E099F8001055A003F030
:104DE000ADF81FE056A003F0A9F81BE0A1796279A5
:104DF0002379A068CDE90032CDE90210E378A278EA
:104E0000218854A003F09AF80CE05DA003F096F816
:104E100060A003F093F89AF8001062A003F08EF8F7
:104E200000E000BF00BF08F1010000F0FF08387883
:104E3000404590DC002088E75F4800783049C1F8A1
:104E400002005E480078C1F806005D480088C1F89D
:104E50000A005C480088C1F80E005B480088C1F871
:104E600012005A480088C1F8160059480088C1F855
:104E70001A00704710B51E21214802F084FB10BDB6
:104E800054480068401C5349086070475148006806
:104E90007047704700B5FFF7F3FF00BD08B500206D
:104EA00000900121684600F099F808BD70B50546EC
:104EB0000E4600240DB9601E70BD00241BE0295D64
:104EC0004548FDF781FB00BF80214348FDF7EAFB21
:104ED0000028F9D0022C0DD3285DFF280AD15521D6
:104EE0003D48FDF771FB00BF80213B48FDF7DAFB31
:104EF0000028F9D0641CB442E1D33046DCE700005E
:104F00001C1C00204576743A204556454E545F6C73
:104F10006564202564200A004576743A204556458C
:104F20004E545F6D6F746F72202564200A0000007C
:104F30002A000020525353492025640A0000000033
:104F40005452414E53504152454E545F4441544196
:104F5000200A0000574946495F4E5450203A205BD2
:104F600025642D25642D256420253032643A2530B2
:104F700032643A253032645D5B25645D200A0000AE
:104F80004D4F44554C4520494E464F202E2E2E0A5B
:104F900000000000574946204D4F44554C45202EF7
:104FA0002E2E0A006D6F64756C6554797065203A19
:104FB000205B25645D200A00F1110020F211002021
:104FC000320000203400002036000020380000208D
:104FD0003A0000200C1200200044004070B5044646
:104FE0000D46002624B9F6A002F0A8FF701E70BD81
:104FF0002A462146FA4802F029FA0646AE4205D072
:10500000F8A002F09BFF4FF0FF30F0E73046EEE7EC
:1050100010B504462CB9FAA002F090FF4FF0FF3013
:1050200010BD002020606060FF20207060700020B4
:10503000F6E770B504460D462CB9FCA002F07EFFE1
:105040004FF0FF3070BD4821FE4802F09CFA2A461E
:105050002146FC48801C02F07DFAFA489038A0F8FE
:10506000D250012180F89110FFF710FFF5499039D7
:10507000C1F8D4000020E5E7F8B505460C46164611
:105080000DB104B12EB9F0A002F058FF4FF0FF307F
:10509000F8BD287800F0010098B111212278601C39
:1050A00081542078401C207001206B1C0246002196
:1050B0000090084602F08FF808B1012000E00020BF
:1050C00030702878C0F3400098B112212278601C1B
:1050D00081542078401C207001206B1C0246014640
:1050E0000090002002F077F808B1012000E00020D5
:1050F00070700020CCE72DE9F04104460D460027F2
:10510000002604B135B9DBA002F018FF4FF0FF30E4
:10511000BDE8F081FFF7BAFE06462878217888427C
:1051200003D0DEA002F00AFF012768786178884288
:1051300003D0DFA002F002FF0127D5F80200D4F867
:10514000021088420AD0DF480068301A41F27071BC
:10515000884203D3DCA002F0F1FE0127D5F8060057
:10516000D4F8061088420AD0D6480068301A41F2B6
:105170007071884203D3DBA002F0E0FE0127D5F86E
:105180000A00D4F80A1088420AD0CE480068301AC3
:1051900041F27071884203D3D8A002F0CFFE0127FC
:1051A000D5F80E00D4F80E1088420AD0C548006821
:1051B000301A41F27071884203D3D5A002F0BEFECE
:1051C0000127D5F81200D4F8121088420AD0BD4841
:1051D0000068301A41F27071884203D3D2A002F005
:1051E000ADFE0127D5F81600D4F8161088420AD073
:1051F000B4480068301A41F27071884203D3D0A0DD
:1052000002F09CFE0127D5F81A00D4F81A10884243
:105210000AD0AC480068301A41F27071884203D35A
:10522000CDA002F08BFE0127012F03D1FFF72EFE48
:10523000A449086038466BE7F8B505460C4605B149
:105240002CB9CCA002F07AFE4FF0FF30F8BD002060
:105250002070AD1C15F8020C23460122002100909D
:10526000084602F019F815F8010C234601221146F0
:105270000090002002F010F80121204601F0A6FE67
:105280002A680021012001F0BAFE04F8010F6A68C3
:105290000021012001F0B3FE6070AA680021012006
:1052A00001F0ADFE86B2304601F0D7FC6080EA68BE
:1052B0000021012001F0A3FE86B2304601F0CDFCB2
:1052C000A0802A690021012001F099FE86B23046B3
:1052D00001F0C3FCE0806A690021012001F08FFE2B
:1052E00086B2304601F0B9FC2081AA69AD1E0021CA
:1052F000012001F084FE86B2304601F0AEFC6081F0
:10530000641E0020A2E72DE9F04780460C461746B0
:105310001D46089E94F800900CB105B136B9A1A0C5
:1053200002F00CFE4FF0FF30BDE8F087B8F1000F3F
:1053300044D114214348483002F025F9B9F1010F56
:1053400006D0B9F1020F12D0B9F1050F37D124E020
:105350003C4AA532A2F15D01601CFFF78DFE0120E1
:1053600038499039087000250020306042E1354905
:10537000983101F12B00FFF75FFF50B90D22314941
:105380009831681C02F0E6F8032028700E20306087
:1053900002E04FF0FF30C7E72CE17A1E611C29487C
:1053A0004F3802F0D7F8781E26499039C1F88400AA
:1053B00010212448903890F8D8200BE11BE118E127
:1053C0004552523A2067697A50757444617461207D
:1053D00062756620697320656D707479200A00001B
:1053E000001E00204552523A204661696C656420D7
:1053F000746F2072625772697465200A00000000A1
:105400004552523A2067697A50726F746F636F6CBD
:1054100048656164496E69742068656164206973D8
:1054200020656D707479200A000000004552523AE0
:10543000206461746120697320656D707479200A3D
:1054400000000000CC1C002067697A446174615040
:105450006F696E74324576656E74204572726F7234
:10546000202C20496C6C6567616C20506172616D05
:105470000A00000067697A436865636B5265706F64
:105480007274204572726F72202C20496C6C6567B3
:10549000616C20506172616D0A00000076616C756C
:1054A000656C6564204368616E6765640A0000008E
:1054B00076616C75656D6F746F72204368616E679D
:1054C00065640A001012002076616C7565444854CA
:1054D00031315F54656D70204368616E6765640AA1
:1054E0000000000076616C756544485431315F48B6
:1054F000756D204368616E6765640A0076616C753E
:1055000065507265204368616E6765640A0000003B
:1055100076616C7565677A5F76616C756520436846
:10552000616E6765640A000076616C75656D325F57
:1055300076616C7565204368616E6765640A00007A
:1055400076616C75656D375F76616C756520436853
:10555000616E6765640A000076616C75656D313354
:10556000355F76616C7565204368616E6765640AB6
:105570000000000067697A44617461506F696E745D
:1055800073325265706F7274446174612045727237
:105590006F72202C20496C6C6567616C20506172C1
:1055A000616D0A0067697A50726F746F636F6C493E
:1055B000737375656450726F63657373204572729F
:1055C0006F72202C20496C6C6567616C2050617291
:1055D000616D0A00D9308154D93890F8D800401C48
:1055E000F74981F8D80003200870002500203060BA
:1055F00000E000BF00BF002096E62DE9F04FA1B00B
:1056000006468B46174699460020209082468046E3
:1056100000256C46BBF1000F06D1EAA002F08EFC1B
:10562000681E21B0BDE8F08FB9F1010F06D196F8E0
:10563000088008F10600384485B201E0781D85B283
:105640002B4642463946E5A002F078FCFF2004F8DC
:10565000010B04F8010B281204F8010B04F8015B9C
:105660003079401C04F8010B707904F8010B00201C
:1056700004F8010B04F8019B4FF0080AB9F1010F7F
:105680000CD104F8018B0AF1010A0DEB0A00424625
:1056900006F1090101F05EFFC24444442FB10DEB55
:1056A0000A003A46594601F055FF291D684601F0A7
:1056B000C1FA0146E81C0DF80010291D6846FFF7E5
:1056C000F5FB20902098002806DACEA0209902F061
:1056D00035FC6FF00100A4E70020A2E7F0B587B029
:1056E00005460E46174600242EB9CCA002F026FC33
:1056F000601E07B0F0BD01A8FFF78AFC05208DF8F9
:105700000800AF4890F88810D0F88800401CAC4AD8
:10571000C2F88800C8B28DF809008DF80C5013202B
:1057200001F09BFAADF806003A4631460DF10D0046
:1057300001F010FF172101A801F07CFA8DF81A0082
:10574000172101A8FFF7B2FB0446002C06DA214618
:10575000BCA002F0F3FB6FF00100CAE7172101A81B
:10576000FFF767FC2046C4E770B50546FFF78EFBE0
:105770000446BB492846FFF7BEFC012813D1B9A057
:1057800002F0DCFBB6492B392846FFF755FD28B956
:105790000D22B3492B390420FFF7A0FF1E22294612
:1057A000AF4801F0D7FEB548B4FBF0F100FB114063
:1057B000C8B9B3480068A04215D0B2A002F0BEFB41
:1057C000A7492B392846FFF737FD28B90D22A449F0
:1057D0002B390420FFF782FF1E222946A04801F042
:1057E000B9FEA748046070BD2DE9FE4F80460E4605
:1057F00017464FF0000B002002908146824600259C
:1058000034460090B8F1000F01D006B137B9A3A01B
:1058100002F094FB4FF0FF30BDE8FE8F404601F0F0
:1058200099FD1FFA80FABAF1000F02D14FF0FF3054
:10583000F2E74FF0000969E0012201A9404601F0BA
:10584000B4FD8346BBF1000F5ED0A0480078FF286E
:105850001FD19DF80400FF281BD19D48007848B94E
:10586000FF202070607002209A490880012098492A
:10587000087040E09748008804283CDD954800887F
:10588000A84238D0FF202070607002209149088023
:1058900031E08E480078FF2803D19DF80400552898
:1058A00029D08B480078012825D19DF8040089492A
:1058B0000988605487480088401C8649088008464B
:1058C0000088042817DD0094009C608801F0C5F969
:1058D000001D85B2402D01D2042D07DC00207C493B
:1058E00008707C4908807CA002F028FB7948008879
:1058F000A84200D10CE09DF8040074490870864865
:105900000078401C8449087009F10109D14593DBF6
:1059100000BF70480088042822DD6E480088A84235
:105920001ED16C480188204601F084F90290694834
:105930000088401E215C029881420AD13D800020EF
:105940006349087063490880734908705F490870AB
:1059500062E700205E4908705E490880801E5BE7B0
:10596000012059E710B50024154890F8910000B9BE
:1059700010BD6AA002F0E2FA1148B0F8D2109230DD
:10598000FFF794FA04460E48B0F8D200A04202D0C5
:105990006AA002F0D3FAFFF779FA0949C1F8D400F6
:1059A00000BFE5E770B50446054D923534B9AFF256
:1059B000845002F0C3FA4FF0FF3070BDCAE000001F
:1059C0003C1C00205B4552525D20206461746120C4
:1059D0004973204E756C6C200A0000006C656E20C7
:1059E0003D202564202C20734469644C656E203D65
:1059F000202564202C646174615F6C656E203D20FD
:105A000025640A0075617274207772697465206577
:105A100072726F72202564200A00000067697A5252
:105A200065706F727444617461204572726F722088
:105A30002C20496C6C6567616C20506172616D0A45
:105A4000000000004552523A20756172742077724E
:105A5000697465206572726F72202564200A0000E7
:105A60008F1D00206368616E6765642C207265700D
:105A70006F727420646174610A000000C02709001D
:105A800014120020496E666F3A203630305320726F
:105A900065706F727420646174610A0067697A507E
:105AA000726F746F636F6C4765744F6E655061639E
:105AB0006B6574204572726F72202C20496C6C6586
:105AC00067616C20506172616D0A00001C12002039
:105AD000181200201A1200204552523A74686520AC
