:020000040800F2
:10000000480F002025020008FD1A00088D1900087D
:10001000F91A0008B90F0008F326000800000000D4
:10002000000000000000000000000000ED200008BB
:100030002917000800000000951F00080122000891
:100040003F0200083F0200083F0200083F0200088C
:100050003F0200083F0200083F0200083F0200087C
:100060003F0200083F0200083F0200083F0200086C
:100070003F0200083F0200083F0200083F0200085C
:100080003F0200083F0200083F0200083F0200084C
:100090003F0200083F0200083F0200083F0200083C
:1000A0003F0200083F0200083F0200083F0200082C
:1000B000652200087D220008F12200083F020008A6
:1000C0003F0200083F0200083F0200083F0200080C
:1000D0003F020008ED2300083F02000875240008D5
:1000E0003F0200083F0200083F0200083F020008EC
:1000F0003F0200083F0200083F0200083F020008DC
:100100003F0200083F0200083F0200083F020008CB
:100110003F0200083F0200083F0200083F020008BB
:100120003F0200083F0200083F0200083F020008AB
:1001300000F002F800F066F80AA090E8000C824493
:100140008344AAF10107DA4501D100F05BF8AFF270
:10015000090EBAE80F0013F0010F18BFFB1A43F0A5
:10016000010318472C7C00004C7C000010F8013B78
:100170000A4413F0030408BF10F8014B1D1108BF17
:1001800010F8015B641E05D010F8016B641E01F8C5
:10019000016BF9D1002D15D010F8014B03F00C03C1
:1001A0000C2BA1EB04040ABF10F8013BA4EB831451
:1001B000A4EB032405F1010314F8016B5B1E01F8A5
:1001C000016BF9D5914238BF10F8013BD1D370478C
:1001D0000023002400250026103A28BF78C1FBD850
:1001E000520728BF30C148BF0B607047642900F038
:1001F000A780782900F0E080002070471FB51FBD60
:1002000010B510BD00F07CFB1146FFF7F7FF04F0BE
:1002100081FE00F09AFB03B4FFF7F2FF03BC02F08B
:100220002CFB00000948804709480047FEE7FEE72D
:10023000FEE7FEE7FEE7FEE7FEE7FEE7FEE7FEE796
:1002400004480549054A064B70470000052200088E
:100250003101000848090020480F0020480B002009
:10026000480B0020704710B54C1084EA530404D5A5
:100270004042C1F1000138BF491E1B4204D5524221
:10028000C3F1000338BF5B1E00F0FBF914F0804F90
:1002900004D04042C1F1000138BF491E14F0004FA4
:1002A00004D05242C3F1000338BF5B1E10BD0000F2
:1002B0000FB4044910B503AA029800F0DBFA10BC91
:1002C0005DF814FBAC0500200FB41CB5074B06AA63
:1002D0007B4469460090059800F0B3FA0020694617
:1002E00000F0C2FA1CBC5DF814FB0000950500008C
:1002F00070B5044685690068C10601D5302600E066
:100300002026C00707D070BDD4E9012130469047B0
:10031000206A401C20626D1EF6D570BD70B5044683
:1003200085690078C00707D170BDD4E9012120207C
:100330009047206A401C20626D1EF6D570BD0000FB
:100340002DE9F0410646002410687529314616A5AE
:1003500010D0AFF30080002802DA404213A507E076
:1003600031688A0701D512A502E0490704D511A515
:10037000012401E0AFF3008000210A2206F12407E6
:1003800009E0B0FBF2FCB0FBF2F302FB1C003030E2
:1003900078541846491C0028F3D123462A46304693
:1003A000BDE8F04100F0EFB9000000002D000000B2
:1003B0002B0000002000000070B504460D462146C9
:1003C0001068AFF300802188090502D50F4A7A44EE
:1003D00002E00E4A7A440E32002104F1240305E0C3
:1003E00000F00F060009965D5E54491C0028F7D105
:1003F00020780023000704D5702D02D009B1022314
:1004000011322046BDE8704000F0BDB9F078000020
:100410002DE9F05F894604464FF0000ADFF824B169
:10042000FB44C0F820A02046E168884700287DD022
:10043000252806D0D4E901219047206A401C20627B
:10044000F1E700255F462046E168884720280646F8
:1004500007DB312E05D2B81910F8200C08B105437E
:10046000F1E7A80701D525F00405C4F81CA0002772
:10047000C4F818A02A2E09D0304602F0F7F938B394
:1004800004EB8708303EC8F8186019E059F8041BDF
:10049000204604EB87029161E1688847012F0646F8
:1004A00018D1E069002820DA25F020051DE0D8F8F1
:1004B000180000EB800006EB40003038C8F8180048
:1004C0002046E1688847064602F0D0F90028EED1C0
:1004D000012F0AD02E2E08D12046E16888477F1CC4
:1004E0000646022F45F02005C4DBA069002803DA88
:1004F000404245F00105A061E80701D025F0100554
:10050000A6B1A6F14100192802D8203645F40065AD
:100510004A463146204625604D46FFF767FE60B1EA
:10052000012807D0ED1D25F0070000E007E000F1ED
:10053000080978E705F1040975E730467AE7206A8B
:10054000BDE8F09FC6780000032A40F2308010F02A
:10055000030C00F0158011F8013BBCF1020F62445E
:1005600098BF11F801CB00F8013B38BF11F8013BEF
:10057000A2F1040298BF00F801CB38BF00F8013B9C
:1005800011F0030300F02580083AC0F0088051F80C
:10059000043B083A51F804CBA0E80810F5E7121D17
:1005A0005CBF51F8043B40F8043BAFF30080D20736
:1005B00024BF11F8013B11F801CB48BF11F8012B02
:1005C00024BF00F8013B00F801CB48BF00F8012B25
:1005D000704710B5203AC0F00B80B1E81850203AAF
:1005E000A0E81850B1E81850A0E81850BFF4F5AFD3
:1005F0005FEA027C24BFB1E81850A0E8185044BF5D
:1006000018C918C0BDE810405FEA827C24BF51F8C9
:10061000043B40F8043B08BF7047D20728BF31F8BD
:10062000023B48BF11F8012B28BF20F8023B48BF0E
:1006300000F8012B70474FF000020429C0F012802F
:1006400010F0030C00F02A81CCF1040CBCF1020F75
:1006500018BF00F8012BA8BF20F8022BA1EB0C015A
:1006600000F01CB95FEAC17C24BF00F8012B00F840
:10067000012B48BF00F8012B704770477047704747
:10068000704753EA020C00F069802DE9F04B4FF0FF
:100690000006002B1FBFB3FA83F503FA05F424FA12
:1006A00005F65E4012BF1643B2FA82F502FA05F46F
:1006B000C5F120051EBF22FA05FC44EA0C042035D2
:1006C00056EA044C4FEA144418BF641C4FF000086B
:1006D0004FF00009904271EB030C39D3002919BF88
:1006E000B1FA81F701FA07F6B0FA80F700FA07F6D7
:1006F000C7F120071EBF20FA07FC46EA0C06203788
:10070000B6FBF4FCA7EB0507103F07F01F0BCBF17E
:1007100020060CFA0BFB2CFA06F644BFB346002663
:10072000202FA4BF5E464FF0000B5BEA060C08BF0B
:100730004FF0010B19EB0B09ABFB027C48EB0608F1
:10074000C01B06FB02CC0BFB03CC71EB0C01C1E719
:100750000B46024641464846BDE8F08B13B54FF0C4
:1007600000004FF00001AFF30080BDE81C4070476F
:1007700010B500F0B9F8006810BD10B5044600F0DF
:10078000B3F8046010BD2DE9F0470D469946924636
:10079000044600F124080168880604D5E06921F0C8
:1007A0001001216000E00120A84201DD471B00E0AC
:1007B0000027A1697A1902EB0900081AA0612078C4
:1007C000C00602D42046FFF793FD002608E0D4E9D6
:1007D00001211AF806009047206A401C761C20620E
:1007E0004E45F4DB2078C0060AD52046FFF780FD91
:1007F00006E0D4E9012130209047206A401C2062A5
:10080000381EA7F10107F4DC07E0D4E9012118F84C
:1008100005009047206A401C2062281EA5F10105B2
:10082000F3DC2046FFF77AFD2078000602D502208F
:10083000BDE8F0870120FBE701694A1C02610878E6
:10084000704700B58FB0CDE9013100210591054910
:100850007944CDE9031011466846FFF7D9FD0FB082
:1008600000BD0000E5FFFFFF0A6802F8010B0A6007
:1008700070470000074B70B50D467B44FFF7E1FF62
:100880000446284600F034F810B14FF0FF3070BD38
:10089000204670BDE72400004FF0000200B513466B
:1008A00094469646203922BFA0E80C50A0E80C5090
:1008B000B1F12001BFF4F7AF090728BFA0E80C5041
:1008C00048BF0CC05DF804EB890028BF40F8042B3A
:1008D00008BF704748BF20F8022B11F0804F18BFA7
:1008E00000F8012B7047000000487047E80800201E
:1008F000007B00F08000704700487047E808002047
:100900007546FFF7F9FFAE4605006946534620F0ED
:100910000700854618B020B5FFF792FCBDE82040DF
:100920004FF000064FF000074FF000084FF0000BAB
:1009300021F00701AC46ACE8C009ACE8C009ACE85E
:10094000C009ACE8C0098D46704710B50446AFF346
:1009500000802046BDE81040FFF75DBC21B18268F1
:1009600042F00102826003E0826822F001028260AC
:100970007047000010B504461248844208D1012196
:10098000401501F039FB0021601501F035FB17E03F
:100990000D48844208D10121001501F02DFB0021F2
:1009A000201501F029FB0BE00848844208D1012101
:1009B000C80301F021FB00214FF4004001F01CFBB3
:1009C00010BD00000024014000280140003C01400F
:1009D000014600208A6802F004020AB1012000E00A
:1009E000002070470146C86C80B270470246002064
:1009F00013680B400BB1012000E000207047014656
:100A000000208A6802F008020AB1012000E00020FC
:100A10007047000030B502460020002350680F4C9C
:100A200020400D790C6844EA05242043506090680A
:100A30000B4C2040D1E902542C434D7944EA450443
:100A400020439060D06A20F470000C7C641EE4B2F5
:100A5000234340EA0350D06230BD0000FFFEF0FFA8
:100A6000FDF7F1FFF0B504460D4600200021092DE9
:100A700011DDE068A5F10A0606EB4607072606FA2F
:100A800007F18843A5F10A0606EB460603FA06F1CC
:100A90000843E0600CE0206905EB4507072606FAED
:100AA00007F1884305EB450603FA06F10843206188
:100AB000072A0FDA606B561E06EB86071F2606FA1A
:100AC00007F18843561E06EB860605FA06F1084331
:100AD000606322E00D2A0FDA206BD61F06EB860733
:100AE0001F2606FA07F18843D61F06EB860605FA8D
:100AF00006F10843206310E0E06AA2F10D0606EB60
:100B000086071F2606FA07F18843A2F10D0606EBB9
:100B1000860605FA06F10843E062F0BD816841F0FF
:100B200008018160704721B1826842F4A0028260AE
:100B300003E0826822F4A00282607047816841F07D
:100B4000040181607047000000B587B001214FF4B7
:100B5000017001F041FA00208DF81B00F020ADF883
:100B6000180003208DF81A0006A9174800F0DDFDD3
:100B70001648FFF7FFFE00208DF8090004904FF49F
:100B8000602003900020019001208DF814000020C7
:100B90008DF8080001A90D48FFF73CFF01210B4823
:100BA000FFF7DCFE0948FFF7B9FF00BF0748FFF772
:100BB00026FF0028FAD10548FFF7C0FF0348FFF7DA
:100BC00007FF07B000BD00000008014000240140FD
:100BD00010B500200F4908600F48006820F07040F1
:100BE0000D4908600846006840F040500860002049
:100BF0000A49C1F89C01022002F074F8012005495D
:100C00000860022002F06EF800200449C1F8980143
:100C100010BD000098812142000C0140008021425B
:100C200008B50121082001F0D7F9C020ADF8000077
:100C300010208DF8030003208DF802006946054856
:100C400000F073FD0120044908600449C1F89C01CB
:100C500008BD0000000C0140988121420080214223
:100C600010B500200F4908600F48006820F0704060
:100C70000D4908600846006840F0405008600120B7
:100C80000A49C1F89C01022002F02CF80120054914
:100C90000860022002F026F800200449C1F89801FB
:100CA00010BD000098812142000C014000802142CB
:100CB00070B5054600241748006820F070401549BB
:100CC00008600846006840F000400860002616E012
:100CD000002011490860022002F004F801200F49A9
:100CE000C1F898016006040E0B487C38006808B112
:100CF000601CC4B2012001F0F5FF701CC6B2082EC2
:100D0000E6DB15B9FFF7ACFF01E0FFF761FF204616
:100D100070BD0000000C01409881214200802142FA
:100D200070B504461548006820F07040134908600B
:100D30000846006840F040500860002010490860F4
:100D4000002517E0E0090E49091D08606006040E41
:100D5000022001F0C7FF01200A49C1F898010220D2
:100D600001F0C0FF002006490860022001F0BAFF30
:100D7000681CC5B2082DE5DB70BD0000000C014009
:100D8000988121420080214210B50F48006820F070
:100D900070400D4908600846006840F04050086007
:100DA00001200A4908600A49C1F89801042001F0AD
:100DB00099FF002005490860042001F093FF0020FE
:100DC0000349C1F8980110BD000C01409C812142EB
:100DD0000080214210B50F48006820F070400D4996
:100DE00008600846006840F04050086000200A494A
:100DF00008600A49C1F89C01042001F073FF01203A
:100E0000054908600549C1F89C01042001F06AFF0A
:100E100010BD0000000C0140988121420080214259
:100E200010B500241448006820F070401249086092
:100E30000846006840F00040086001200F49086043
:100E400001F050FF01200E49C1F8980101F04AFF5E
:100E500007E0601CC4B2FA2C03DDFFF7BBFF0120E2
:100E600010BD0648803800680028F2D10349091FE8
:100E7000086000BFF4E70000000C01409C812142A3
:100E80000080214270B504460E461546002C44D120
:100E90003EE001204549086000204549C1F8B00105
:100EA0004249103108604349C1F88C01304601F0D5
:100EB000F3FE00203D4908600120091D0860002064
:100EC0003A49103108603B49C1F88C01304601F0C5
:100ED000E3FE002035490860091D08600120334900
:100EE0001031086000203349C1F88C01304601F010
:100EF000D3FE00202D490860091D08602B491031E0
:100F0000086001202B49C1F88C01304601F0C4FE75
:100F1000281EA5F101018DB2BBD1012C44D13EE0C8
:100F20000020224908602249C1F8B0011F49103150
:100F3000086001201F49C1F88C01304601F0ACFE69
:100F400000201A490860091D086001201749103166
:100F5000086000201749C1F88C01304601F09CFE62
:100F60000020124908600120091D086000200F4977
:100F7000103108600F49C1F88C01304601F08CFE39
:100F800001200A4908600020091D08600749103146
:100F900008600849C1F88C01304601F07DFE281E2A
:100FA000A5F101018DB2BBD170BD0000AC012142A1
:100FB000000021420080214200BFFEE770B50446D8
:100FC0000725012C7DD10020FD49086000F0DAFDE5
:100FD000E2E2002000F0FCFC0446012C04D1681C75
:100FE000C5B2082D00DB0025F6480278F6A1FA48C4
:100FF000FFF76AF90C23F84A0021082000F048FFA7
:10100000F6480288F6A1F448FFF75EF90C23F24A8D
:101010000121082000F03CFFF5480288F5A1EE48C8
:10102000FFF752F90C23EC4A0221082000F030FFB0
:10103000F4480288F4A1E848FFF746F90C23E64A91
:101040000321082000F024FFF3480288F3A1E248BE
:10105000FFF73AF90C23E04A0421082000F018FFBA
:10106000F2480288F2A1DC48FFF72EF90C23DA4A95
:101070000521082000F00CFFF1480288F1A1D648B4
:10108000FFF722F90C23D44A0621082000F000FFC4
:10109000F0480288F0A1D048FFF716F90C23CE4A99
:1010A0000721082000F0F4FE002D31D10C23EEA220
:1010B0000021084600F0ECFE0C23ECA201210020E8
:1010C00000E06BE200F0E4FE0C23E7A20221002026
:1010D00000F0DEFE0C23E4A20321002000F0D8FE85
:1010E0000C23E1A20421002000F0D2FE0C23DEA29A
:1010F0000521002000F0CCFE0C23DBA206210020FD
:1011000000F0C6FE0C23D8A20721002000F0C0FE8C
:10111000012D2FD10C23D4A20021084600F0B8FEE7
:101120000C23D1A20121002000F0B2FE0C23CFA29B
:101130000221002000F0ACFE0C23CBA203210020F2
:1011400000F0A6FE0C23C8A20421002000F0A0FE9F
:101150000C23C5A20521002000F09AFE0C23C2A298
:101160000621002000F094FE0C23BFA207210020DE
:1011700000F08EFE022D2FD10C23BBA200210846C9
:1011800000F086FE0C23B8A20121002000F080FEB2
:101190000C23B5A20221002000F07AFE0C23B3A29A
:1011A0000321002000F074FE0C23AFA204210020D4
:1011B00000F06EFE0C23ACA20521002000F068FEBA
:1011C0000C23A9A20621002000F062FE0C23A6A297
:1011D0000721002000F05CFE032D2FD10C23A2A2DA
:1011E0000021084600F054FE0C239FA2012100209C
:1011F00000F04EFE0C239CA20221002000F048FECD
:101200000C2399A20321002000F042FE0C2397A298
:101210000421002000F03CFE0C2393A205210020B5
:1012200000F036FE0C2390A20621002000F030FED4
:101230000C238DA20721002000F02AFE042D2FD1BF
:101240000C2389A20021084600F022FE0C2386A26E
:101250000121002000F01CFE0C2383A202210020AB
:1012600000F016FE0C2380A20321002000F010FEE7
:101270000C237DA20421002000F00AFE0C237BA297
:101280000521002000F004FE0C2377A20621002097
:1012900000F0FEFD0C2374A20721002000F0F8FDF1
:1012A000052D2FD10C2370A20021084600F0F0FD7F
:1012B0000C236DA20121002000F0EAFD0C236AA29C
:1012C0000221002000F0E4FD0C2367A2032100208E
:1012D00000F0DEFD0C2364A20421002000F0D8FD04
:1012E0000C2361A20521002000F0D2FD0C235FA297
:1012F0000621002000F0CCFD0C235BA2072100207A
:1013000000F0C6FD062D2FD10C2357A20021084660
:1013100000F0BEFD0C2354A20121002000F0B8FD16
:101320000C2351A20221002000F0B2FD0C234EA29A
:101330000321002000F0ACFD0C234BA2042100206F
:1013400000F0A6FD0C2348A20521002000F0A0FD1E
:101350000C2345A20621002000F09AFD0C2343A295
:101360000721002000F094FD072D28D10C233FA277
:101370000021084600F08CFD0C233BA20121002037
:1013800000F086FD0C2338A20221002000F080FD31
:101390000C2335A20321002000F07AFD0C2332A299
:1013A0000421002000F074FD0C232FA20521002051
:1013B00000F06EFD0C232CA20621002058E060E016
:1013C000B40122420E000020576F726B696E6720D5
:1013D0006D643A2534640000DC0500201E00002006
:1013E000415F54656D70202020203A253464000050
:1013F00020000020415F48756D20202020203A25E4
:101400003464000022000020415F707265202020BB
:1014100020203A253464000024000020415F677AD0
:101420005F76616C20203A2534640000260000209D
:10143000415F6D325F76616C20203A253464000094
:1014400028000020415F6D375F76616C20203A25CF
:10145000346400002A000020415F6D3133355F762F
:10146000616C3A2534640000200000003E0000005A
:1014700000F00EFD0C23AFF210020721002000F057
:1014800007FD6DB9032C04D145480088401C444930
:101490000880042C04D142480088401E404908803E
:1014A000012D0DD1032C04D13E480088401C3D493C
:1014B0000880042C04D13B480088401E394908802C
:1014C000022D0DD1032C04D1374800881430364941
:1014D0000880042C04D1344800881438324908802C
:1014E000032D0DD1032C04D13048008832302F4910
:1014F0000880042C04D12D48008832382B490880FC
:10150000042D0DD1032C04D12948008832302849FC
:101510000880042C04D126480088323824490880E9
:10152000052D0DD1032C04D12248008832302149E9
:101530000880042C04D11F48008832381D490880D7
:10154000062D0DD1032C04D11B48008832301A49D6
:101550000880042C04D118480088323816490880C5
:10156000072D14D1032C04D114480078401C1349D2
:101570000870042C04D111480078401E0F490870EF
:101580000E480078022802DB00200C490870022C6B
:1015900002D100F0F7FA00E01BE500BF70BD0000CB
:1015A0001E00002020000020220000202400002037
:1015B00026000020280000202A0000200E00002025
:1015C00010B500241548006820F0706013490860C9
:1015D0000846006840F00060086004E0601CC4B287
:1015E000012001F07FFB0E48006808B1642CF5DB98
:1015F000642C01DB012010BD002404E0601CC4B297
:10160000012001F06FFB0648006808B9642CF5DB87
:10161000642C01DB0120EEE70020ECE7040C014024
:101620003881214210B5002404E0601CC4B20120BE
:1016300001F058FB0D48006808B1642CF5DB00246C
:1016400004E0601CC4B2012001F04CFB07480068B4
:1016500008B9642CF5DB282001F044FB034800683E
:1016600008B1012010BD0020FCE7000038812142B4
:1016700070B50024002506E06006040EFFF7D2FFD7
:101680000443681CC5B2082DF6DB204670BD7CB54E
:1016900005460E4600F028F8FFF792FFF8B900243F
:1016A00005E0FFF7E5FF0DF80400601CC4B2052C4F
:1016B000F7DB9DF800009DF8011008449DF802102A
:1016C00008449DF8031008449DF80410884208D18E
:1016D0009DF8000030709DF80200287001E00120A4
:1016E0007CBD0020FCE7000010B50C48006820F02D
:1016F00070600A4908600846006840F04070086061
:10170000002007490860142001F0C6FA01200549AD
:10171000C1F8B8011E2001F0E5FA10BD040C01402B
:10172000B88121420080214270472DE9F0410246F4
:1017300000250026002000230024002791F803C084
:101740000CF00F0591F803C00CF0100CBCF1000F69
:1017500003D091F802C04CEA050591F800C0BCF135
:10176000000F31D0146800202BE04FF0010C0CFA70
:1017700000F3B1F800C00CEA03069E4220D18300BA
:101780004FF00F0C0CFA03F7BC4305FA03FC4CEACC
:10179000040491F803C0BCF1280F06D14FF0010CEE
:1017A0000CFA00FCC2F814C00AE091F803C0BCF1C6
:1017B000480F05D14FF0010C0CFA00FCC2F810C024
:1017C000401C0828D1D31460B1F800C0BCF1FF0F51
:1017D00034DD546800202EE000F1080C4FF00108C1
:1017E00008FA0CF3B1F800C00CEA03069E4221D1BE
:1017F00083004FF00F0C0CFA03F7BC4305FA03FC0F
:101800004CEA040491F803C0BCF1280F05D100F1A3
:10181000080C08FA0CF8C2F8148091F803C0BCF167
:10182000480F07D100F1080C4FF0010808FA0CF836
:10183000C2F81080401C0828CED35460BDE8F08167
:10184000F0B50A46002300240021002500F00046E0
:10185000B6F1004F02D11D4EF16901E01B4E7168D7
:10186000C0F3034583B200F44016B6F5401F08D11B
:1018700021F07061154E766826F07066134F7E6019
:1018800012E000F48016B6F5801F06D1032606FA92
:1018900005F4A14341F0706106E0460D360103FAFC
:1018A00006F6B14341F0706122B1460D360103FAEC
:1018B00006F6314300F00046B6F1004F02D1034E68
:1018C000F16101E0014E7160F0BD000000000140D7
:1018D0000246002093680B400BB1012000E000207D
:1018E00070474161704701617047000010B50446C0
:1018F00013491448FFF7CBFE134A1146134801F071
:10190000BBF81248006805F00BFC11490880042060
:1019100001F036FAC0F580500E490880072001F02A
:101920002FFA0D490880052001F02AFA0B4908809A
:10193000062001F025FAC0F580500949088010BD45
:10194000A5050020A4050020300000202C00002068
:101950001400002016000020180000201A000020AB
:101960001C00002010B541F61F41092000F096FC34
:101970004FF4165004F0EEFB1E210348FEF75BFE09
:1019800003F0EAF810BD0000FA05002000BFFEE7F2
:1019900008B501210C2000F01FFB4FF44870ADF892
:1019A000000048208DF8030069460748FFF7BDFE98
:1019B0000120ADF8000048208DF803006946034877
:1019C000FFF7B3FE08BD0000000C01400008014015
:1019D00010B5044614B101202D4908702C48007838
:1019E000002839D020212B48FFF772FF80B14FF437
:1019F00080712848FFF76CFF50B14FF40071254803
:101A0000FFF766FF20B101212348FFF761FF18BBF4
:101A10000A2001F041F900201D4908704FF40071BF
:101A20001C48FFF755FF08B9022010BD20211948B6
:101A3000FFF74EFF08B90320F7E74FF48071154810
:101A4000FFF746FF08B90420EFE701211248FFF72E
:101A50003FFFD8B90120E8E720210E48FFF738FF03
:101A6000012813D101020B48FFF732FF01280DD1E5
:101A700041020848FFF72CFF012807D10121064841
:101A8000FFF726FF012801D1014908700020CCE7AB
:101A900048000020000C01400008014008B5012169
:101AA0001C2000F099FA0920ADF8000010208DF8F4
:101AB000030003208DF8020069460C48FFF735FE4D
:101AC00001210A48FFF70DFF4FF4C050ADF80000A8
:101AD00069460748FFF729FE4FF40050ADF80000B3
:101AE00069460448FFF721FE08BD0000000C0140D4
:101AF000000801400010014000BFFEE770470000F1
:101B000070B5002100230F22C47804B3154C24685B
:101B100004F4E064C4F5E064210AC1F10403CA409E
:101B2000447804FA03F184781440214309010E4CEF
:101B30000678A155047804F01F050124AC4005780F
:101B40006D11AD0005F1E025C5F8004109E004780C
:101B500004F01F050124AC40044D0678761145F8C9
:101B6000264070BD0CED00E000E400E080E100E004
:101B700002490143024A1160704700000000FA0563
:101B80000CED00E070B5002418E004F1B000002175
:101B900000F099F90021084600F095F90021102085
:101BA00000F091F9002505E00121002000F08BF9FB
:101BB000681CC5B2802DF7DB601CC4B2082CE4DBC6
:101BC00070BD000010B54FF480510948FFF78BFE3F
:101BD0004FF400510648FFF786FE4FF400510448C9
:101BE000FFF77FFE4FF480510148FFF77AFE10BDEA
:101BF000000C014010B54FF480510748FFF773FE09
:101C00004FF400510448FFF76CFE4FF400510248B6
:101C1000FFF769FE10BD0000000C014010B54FF445
:101C200080510448FFF75FFE4FF480510148FFF7F1
:101C300058FE10BD000C014008B50121092000F03C
:101C4000CBF901214348FFF7FBFD4FF44050ADF8BD
:101C5000000010208DF8030003208DF80200694673
:101C60003D48FFF762FD4FF440513B48FFF73BFE14
:101C70004FF4487001F010F80021AE2000F023F975
:101C80000021084600F01FF90021102000F01BF988
:101C90000021402000F017F90021B02000F013F9D6
:101CA0000021812000F00FF90021FF2000F00BF946
:101CB0000021A12000F007F90021A62000F003F97F
:101CC0000021A82000F0FFF800213F2000F0FBF8E1
:101CD0000021C82000F0F7F80021D32000F0F3F82D
:101CE0000021084600F0EFF80021D52000F0EBF8C5
:101CF0000021802000F0E7F80021D82000F0E3F870
:101D00000021052000F0DFF80021D92000F0DBF8E9
:101D10000021F12000F0D7F80021DA2000F0D3F8FC
:101D20000021122000F0CFF80021DB2000F0CBF8DA
:101D30000021302000F0C7F800218D2000F0C3F80A
:101D40000021142000F0BFF80021AF2000F0BBF804
:101D500008BD000000023000000C014070B50446D0
:101D60000D4605F1B000002100F0ADF8102141EA68
:101D70001410002100F0A7F804F00F00002100F07B
:101D8000A2F870BD2DE9F04180460E4615460027A9
:101D900031464046FFF7E2FF00240AE0124A02EB18
:101DA0008511085D012100F08EF8781CC7B2601C17
:101DB000C4B2102CF2DB701CC1B24046FFF7CEFF5C
:101DC00000240CE06900491C074A02EB4111085D40
:101DD000012100F078F8781CC7B2601CC4B2102C46
:101DE000F0DBBDE8F0810000490000202DE9F0475C
:101DF00007460E469046994600250024A8F120008B
:101E0000C5B27F2F02DD0027B01CC6B2B9F1100F9A
:101E100024D131463846FFF7A1FF002408E004EB47
:101E20000511194A505C012100F04DF8601CC4B244
:101E3000082CF4DB701CC1B23846FFF78FFF00247A
:101E400009E004EB051108310F4A505C012100F054
:101E50003AF8601CC4B2082CF3DB12E03146384675
:101E6000FFF77CFF00240AE005EB4501074A02EB7F
:101E70004101085D012100F026F8601CC4B2062C67
:101E8000F2DBBDE8F0870000C27600089A74000813
:101E90002DE9F04105460E4614461F460EE0227815
:101EA0003B4631462846FFF7A1FF05F10800C5B2C1
:101EB000782D02DD0025B01CC6B2641C20780028F5
:101EC000EDD1BDE8F08170B504460D461DB1E0B21C
:101ED00000F04AF802E0E0B200F030F870BD000017
:101EE0002DE9F04105462C464FF480511248FFF78A
:101EF000F8FC00261CE0274607F08007802F04D15D
:101F0000B9010D48FFF7EFFC04E04FF400510A4817
:101F1000FFF7E7FC6006040E4FF480510648FFF718
:101F2000E2FC4FF480510448FFF7DBFC701CC6B2A2
:101F3000082EE0DBBDE8F081000C014010B504463E
:101F4000FFF740FE7820FFF7CBFFFFF767FE00208A
:101F5000FFF7C6FFFFF762FE2046FFF7C1FFFFF75E
:101F60005DFEFFF747FE10BD10B50446FFF72AFEE1
:101F70007820FFF7B5FFFFF751FE4020FFF7B0FFD5
:101F8000FFF74CFE2046FFF7ABFFFFF747FEFFF7DA
:101F900031FE10BD7047000029B1064AD2690243E4
:101FA000044BDA6104E0034AD2698243014BDA61EF
:101FB000704700000010024029B1064A126902432E
:101FC000044B1A6104E0034A12698243014B1A610F
:101FD000704700000010024029B1064A926902438E
:101FE000044B9A6104E0034A92698243014B9A616F
:101FF000704700000010024029B1064AD26802432F
:10200000044BDA6004E0034AD2688243014BDA6091
:10201000704700000010024030B50021002200246B
:1020200000232D4D6D6805F00C0121B1042905D068
:10203000082923D105E0294D056022E0274D0560E0
:102040001FE0254D6D6805F47012234D6D6805F491
:102050008034022505EB92421CB9214D55430560A1
:102060000BE01D4D6D6805F400351DB11C4D554349
:10207000056002E0194D5543056002E0174D05600B
:1020800000BF00BF144D6D6805F0F0010909154D42
:102090006B5C0568DD4045600F4D6D6805F4E061DF
:1020A000090A104D6B5C4568DD4085600A4D6D681E
:1020B00005F46051C90A0B4D6B5C4568DD40C56095
:1020C000054D6D6805F44041890B074D6B5CC56893
:1020D000B5FBF3F5056130BD0010024000127A0037
:1020E00000093D00B2050020C2050020704710B570
:1020F00000F002F810BD00000CB500200190009027
:102100003348006840F480303149086000BF3048EF
:10211000006800F4003000900198401C0190009885
:1021200018B90198B0F5A06FF1D12948006800F402
:10213000003010B10120009001E0002000900098D4
:10214000012843D12348006840F01000214908606D
:102150000846006820F0030008600846006840F068
:10216000020008601A4840681949486008464068FB
:1021700048600846406840F480604860084640680F
:1021800020F47C1048600846406840F4E81048603D
:102190000846006840F08070086000BF0C48006886
:1021A00000F000700028F9D00948406820F00300D2
:1021B000074948600846406840F00200486000BF98
:1021C0000348406800F00C000828F9D10CBD00005D
:1021D0000010024000200240042808D14FF0E02106
:1021E000096941F004014FF0E022116107E04FF06E
:1021F000E021096921F004014FF0E02211617047EC
:102200007047000010B51348006840F00100114904
:10221000086008464068104908400E494860084672
:1022200000680E4908400B4908600846006820F421
:10223000802008600846406820F4FE0048604FF4A3
:102240001F008860FFF753FF4FF0006004490860EB
:1022500010BD0000001002400000FFF8FFFFF6FE76
:1022600008ED00E010B50121880700F05CF818B116
:102270000121880700F048F810BD000010B50121C9
:10228000054800F050F828B10121034800F03CF85F
:1022900002F04CF910BD0000000400407FB5054677
:1022A0000C4601210220FFF777FEADF80850ADF88B
:1022B00004400020ADF80A00ADF8060001A90B4863
:1022C00000F042F81D208DF8000000208DF801007C
:1022D00003208DF8020001208DF803006846FFF707
:1022E0000FFC0121014800F012F87FBD00040040FE
:1022F00010B50121034800F016F80121014800F053
:1023000003F810BD00080040CA430282704721B1A3
:10231000028842F00102028004E002884FF6FE7358
:102320001A400280704730B5024600200023002486
:10233000158A05EA0103958905EA010413B10CB178
:10234000012000E0002030BD002202881D4B984291
:102350000ED01D4B98420BD0B0F1804F08D01B4BD4
:10236000984205D01A4B984202D01A4B984204D199
:102370004FF68F731A404B881A43174B984207D079
:10238000164B984204D04FF6FF431A40CB881A43AD
:1023900002808B8883850B8803850A4B98420BD07B
:1023A000094B984208D00E4B984205D00D4B9842ED
:1023B00002D00D4B984201D10B7A03860123838210
:1023C00070470000002C0140003401400004004030
:1023D00000080040000C00400010004000140040C5
:1023E00000400140004401400048014010B540F267
:1023F00025511D4800F0B9F810B31B4800F070F9E2
:10240000C4B21A48008800F40040C8B917480088D0
:1024100000F4804060B10A2C03D0002013490880EA
:1024200020E01248008840F400401049088019E07C
:102430000D2C06D10D48008840F480400B490880DF
:1024400010E00A480088C0F30D0009490C54074801
:102450000088401C0549088008460088C72801DD1F
:102460000020088010BD000000380140B0050020A9
:102470004806002008B540F22551074800F075F8DD
:1024800040B1054800F02CF9C0B200900121684627
:1024900001F006FF08BD00000048004021B182891C
:1024A00042F40052828104E082894DF6FF731A40A3
:1024B0008281704710B504462048844209D1012129
:1024C0008803FFF799FD00214FF48040FFF794FD4A
:1024D00032E01B48844209D101214804FFF76CFD1A
:1024E00000214FF40030FFF767FD25E015488442D6
:1024F00009D101218804FFF75FFD00214FF48020FE
:10250000FFF75AFD18E01048844209D10121C804A0
:10251000FFF752FD00214FF40020FFF74DFD0BE0C7
:102520000A48844208D101210805FFF745FD002132
:102530004FF48010FFF740FD10BD0000003801404F
:102540000044004000480040004C00400050004063
:1025500002460020B1F5007F00D100BF13880B4078
:102560000BB1012000E00020704770B50246002446
:1025700000230025002040F66A16B14200D100BFBA
:10258000C1F3421501F01F03012606FA03F3012DE2
:1025900002D19689334006E0022D02D1168A3340DB
:1025A00001E0968A33400C12012606FA04F41688DC
:1025B000344013B10CB1012000E0002070BDF0B533
:1025C0000346002400260025002040F66A17B94281
:1025D00000D100BF1846C1F3421401F01F060127C5
:1025E00007FA06F5012C01D10C3004E0022C01D1D0
:1025F000103000E014301AB107682F43076002E082
:102600000768AF430760F0BD2DE9F04786B0054687
:102610000E460024A24600BFA1460027B08900B1A3
:1026200000BF2F462C8A4CF6FF700440F08804430C
:102630002C82AC894EF6F3100440B08831890843EF
:10264000718908430443AC81AC8A4FF6FF400440D3
:10265000B0890443AC8201A8FFF7DEFC1F48874223
:1026600002D1DDF810A001E0DDF80CA0A88900F48B
:10267000004040B10AEBCA0000EB0A103168490083
:10268000B0FBF1F807E00AEBCA0000EB0A10316872
:102690008900B0FBF1F86420B8FBF0F004012009D8
:1026A000642101FB1089A88900F4004040B1322068
:1026B00000EBC900B0FBF1F000F00700044308E0B4
:1026C000322000EB09106421B0FBF1F000F00F00A4
:1026D00004432C8106B0BDE8F087000000380140BB
:1026E00001468888C0F308007047C1F30802828061
:1026F000704700BFFEE7000010B50446022C05D16C
:1027000007A0FDF7D5FD022002F058FA032C05D1F1
:102710000AA0FDF7CDFD002002F050FA10BD000028
:1027200057494649BDF8C8EB4169724C696E6BC1A7
:10273000ACBDD3C4A3CABD0D0A0000005749464929
:10274000B8B4CEBBA3ACC7EBD6D8D0C2C5E4D6C311
:10275000C1ACBDD30D0A0000490050EAC12018BF2A
:1027600004204A0D18BF40F0010040F2FF72B2EBA6
:10277000515F08BF40F00200012808BF05207047E4
:102780002DE9F0414F1E00EBC7010446D1E90001DD
:1027900015461E4637F006020DD02A46334604F091
:1027A0001FF87F1E04EBC703D3E9002303F09EFD4F
:1027B00037F00602F1D1022F25D0042F13D0062FB7
:1027C00018BFBDE8F0812A46334604F009F8D4E981
:1027D0000A2303F08BFD2A46334604F001F8D4E9BE
:1027E000082303F083FD2A46334603F0F9FFD4E9BA
:1027F000062303F07BFD2A46334603F0F1FFD4E9BC
:10280000042303F073FD2A46334603F0E9FFD4E9BD
:10281000022303F06BFD2A46334603F0E1FFD4E9BF
:102820000023BDE8F04103F061BD00000022134623
:102830001046014903F016BE0000F03F03F056BDFC
:10284000002213461046114603F00CBE40F201323E
:1028500000204FF0E04104F0DABD0000024A002001
:10286000110704F0D4BD000001FDFFFF30380A2835
:1028700001D2012070470020704700BF7047000060
:102880002DE9F14F82B069488069C1174FF4FA33DE
:10289000C41A61F10005A4FB041005FB040004FB4D
:1028A00005036248B0F91000C217A1FB008A03FBC0
:1028B00000A001FB02095D48B0F90E00C117A0FBA2
:1028C000042301FB043100FB0510400440EAD23030
:1028D000510411EB080840EB09095448B0F90C0009
:1028E00018F1000849EBC009A4FB043005FB040003
:1028F00004FB050C4D48B0F90A004FEAE072A3FB57
:10290000001A0CFB00A003FB02024FEA112040EA70
:1029100002604FEA22224549B1F908104FEAE17CF2
:102920002346A1FB03BE0CFB04E301FB05314FEA88
:10293000013141EA1B514FEA0B3384461CEB03047F
:1029400042EB0105221C45F500403849C9880023A7
:10295000A2FB01AC00FB01C002FB03004410C51741
:10296000002184EA01006940084301D1BDE8FE8FDF
:102970000298C0F58010C7170646F80740EA5600CF
:10298000F107B1EB080160EB090040F635434FF069
:10299000000CA1FB032A00FB03A001FB0C00CDE906
:1029A000002022462B46DDE90001FDF75CFC0646CF
:1029B0000F461E48B0F91600C217710B41EAC74C0A
:1029C0007B13A0FB0C1A02FB0CA200FB0322700B72
:1029D00040EAC7404FEA673CA1FB003A02FB00A077
:1029E00001FB0C01580E40EAC1144D160F48B0F916
:1029F0001400C117A0FB062301FB063100FB0711E1
:102A0000D00C40EA41384FEAE149311947EB050063
:102A100011EB080140EB0900020642EA11200349CC
:102A2000B1F912100901461830469FE71806002038
:102A300030B50146CC100F4D2D88A4EB45040D4D4B
:102A4000B5F902506C43E2120A4C2488C4EB2114FD
:102A500064432413074DB5F904506C43A313D418F1
:102A6000044DAC612C46A46904EB8404803420122C
:102A700030BD0000180600202DE9F05F04468946AD
:102A8000924600F041F81A480068FFF7D1FF8346EC
:102A900003F040FE07460022164B03F0E3FC054618
:102AA00003F0F2FB1449086014480068FFF7E8FEE1
:102AB000834603F046FE05460022114B03F0D2FC8C
:102AC000074603F0E1FB0F49086021460D4803F07B
:102AD0003FF909480068C9F800000A48006820600A
:102AE000204600F079F8CAF80000BDE8F09F000029
:102AF00094050020000059409C050020900500200E
:102B00000000D940A00500201CB56B460622F72125
:102B1000EC2002F097F99DF8000000039DF80110E9
:102B200040EA01109DF8021040EA111007490860C0
:102B30009DF8030000039DF8041040EA01109DF881
:102B4000051040EA1110024908601CBD90050020E4
:102B50009405002010B51848007808B1012010BD78
:102B6000FEF75EF8142000F097F8D021EC2002F078
:102B700099F91249087008460078582805D1084686
:102B800001780FA0FDF794FB01E00020E7E7114B6F
:102B900018228821EC2002F055F9B322F421EC2010
:102BA00002F0A0F91422F521EC2002F09BF901209B
:102BB0000149087000BFD2E78D0500208C05002078
:102BC000424D503238302049442049533A20307821
:102BD00025580A00180600202DE9FF5F82460021D3
:102BE000DAF8000004F03BFB25D21448DAF80010B4
:102BF00004F0A0F9834604F003F9114A114BCDE922
:102C0000000102F0B9FB064600220F4B04F00EF85B
:102C10004FF0C0420D4BCDE9020103F0E1FD8046CB
:102C20004FF000420A4B03F01DFC044603F02CFB5E
:102C300004B0BDE8F09F0020FAE70000CDEC7D4431
:102C400028610C878A5AC83F0000F03F66A2724094
:102C5000BE9F7A3F10B56FF00400FFF7BDFA0A4837
:102C600000680A49B0FBF1F009490870084600788D
:102C700000EB4001C1EBC0104FF6FF7101EAC0004C
:102C80000449088010BD00003400002000127A00C2
:102C9000A6050020A80500200146114A12884A43D3
:102CA0004FF0E0235A6100229A611A46126942F0FD
:102CB00001021A6100BF4FF0E022106900F001022A
:102CC0001AB100F48032002AF5D04FF0E0221269E8
:102CD00022F001024FF0E0231A6100229A6170474E
:102CE000A80500200146114A12784A434FF0E0231C
:102CF0005A6100229A611A46126942F001021A6171
:102D000000BF4FF0E022106900F001021AB100F498
:102D10008032002AF5D04FF0E022126922F0010241
:102D20004FF0E0231A6100229A617047A605002047
:102D300001B581B000200090694601AA5078087062
:102D400010784870BDF800000CBD0146080601F47B
:102D50007F4240EA022001F47F0240EA122040EA6A
:102D60001160704700BF054A128802F04002002A35
:102D7000F9D0C2B2014B1B1D1A80704700380140C8
:102D800010B504460723012221460948FDF76AFED3
:102D900001210748FDF7C7FE00BF02210448FDF7E7
:102DA00025FE0028F9D00248FDF71CFE10BD0000EA
:102DB00000240140024612B102F0070028B9082998
:102DC00001D8002070470120FCE702F00700C0F1A5
:102DD0000800884201D30020F4E70120F2E730B573
:102DE00002460B460021002400250AB9481E30BDCA
:102DF000002108E0545C581A401E155C5554581ABE
:102E0000401E1454491CB1EB530FF3D30020EEE7DE
:102E10002DE9F04104460D460026002704B135B9DE
:102E200033A0FDF745FA4FF0FF30BDE8F08100F028
:102E3000C1FA074628782178884203D036A0FDF7EA
:102E400037FA012668786178884203D037A0FDF709
:102E50002FFA0126D5F80200D4F80210884203D0D8
:102E600038A0FDF725FA0126D5F80600D4F806109B
:102E7000884203D038A0FDF71BFA0126D5F80A00D6
:102E8000D4F80A10884203D038A0FDF711FA0126C1
:102E9000D5F80E00D4F80E10884203D038A0FDF704
:102EA00007FA0126D5F81200D4F81210884203D090
:102EB00039A0FDF7FDF90126D5F81600D4F8161053
:102EC000884203D03AA0FDF7F3F90126D5F81A009D
:102ED000D4F81A10884203D03BA0FDF7E9F9012687
:102EE000012E03D100F066FA3E49086030469CE7A7
:102EF00067697A436865636B5265706F72742045C9
:102F000072726F72202C20496C6C6567616C205066
:102F10006172616D0A00000076616C75654C454414
:102F2000204368616E6765640A00000076616C7515
:102F3000654375727461696E204368616E6765648C
:102F40000A00000076616C756554656D70204368F9
:102F5000616E6765640A000076616C756548756D21
:102F6000204368616E6765640A00000076616C75D5
:102F700065507265204368616E6765640A000000F1
:102F800076616C7565475A5F56616C75652043685C
:102F9000616E6765640A000076616C75654D51323B
:102FA0005F56616C7565204368616E6765640A00F1
:102FB00076616C75654D51375F56616C7565204360
:102FC00068616E6765640A0076616C75654D5131A4
:102FD00033355F56616C7565204368616E67656463
:102FE0000A000000CC050020F8B505460C46164640
:102FF0000DB104B12EB96EA0FDF75AF94FF0FF30B4
:10300000F8BD02212846FFF7EAFEB0F1FF3F05D1E7
:1030100072A0FDF74DF94FF0FF30F1E7287800F08E
:10302000010098B111212278601C81542078401C45
:1030300020700120AB1C024600210090084601F0E0
:1030400013FA08B1012000E0002030702878C0F3A6
:10305000400098B112212278601C81542078401CD5
:1030600020700120AB1C024601460090002001F0B8
:10307000FBF908B1012000E0002070702878C0F34F
:10308000800068B113212278601C81542078401C94
:103090002070EA780021012001F050FAC6F8020001
:1030A0002878C0F3C00068B114212278601C8154D4
:1030B0002078401C20702A790021012001F03EFA7E
:1030C000C6F806002878C0F3001090B115212278C8
:1030D000601C81542078401C2070B5F80500FFF773
:1030E00027FE07463A460021012001F027FAC6F8DC
:1030F0000A002878C0F3401090B116212278601C95
:1031000081542078401C2070B5F80700FFF710FEAE
:1031100007463A460021012001F010FAC6F80E00D9
:103120002878C0F3801090B117212278601C815458
:103130002078401C2070B5F80900FFF7F9FD07461C
:103140003A460021012001F0F9F9C6F8120028786A
:103150000121B1EBD01F12D118212278601C8154BB
:103160002078401C2070B5F80B00FFF7E1FD074602
:103170003A460021012001F0E1F9C6F8160068780E
:1031800000F0010090B119212278601C8154207850
:10319000401C2070B5F80D00FFF7CAFD07463A46FF
:1031A0000021012001F0CAF9C6F81A00002027E723
:1031B00067697A44617461506F696E7432457665EF
:1031C0006E74204572726F72202C20496C6C65679A
:1031D000616C20506172616D0A00000067697A427B
:1031E0007974654F7264657245786368616E67656E
:1031F000204572726F720A00F8B505460C4605B19B
:103200002CB931A0FDF754F84FF0FF30F8BD002085
:103210002070AD1C15F8020C2346012200210090FD
:10322000084601F0E1F815F8010C23460122114689
:103230000090002001F0D8F801212046FFF7CFFDD3
:103240002A680021012001F07FF904F8010F6A6863
:103250000021012001F078F96070AA6800210120A6
:1032600001F072F986B23046FFF762FD6080EA68CD
:103270000021012001F068F986B23046FFF758FDC1
:10328000A0802A690021012001F05EF986B2304653
:10329000FFF74EFDE0806A690021012001F054F93A
:1032A00086B23046FFF744FD2081AA69AD1E002199
:1032B000012001F049F986B23046FFF739FD6081FF
:1032C000641E0020A2E7000067697A4461746150BF
:1032D0006F696E7473325265706F72744461746199
:1032E000204572726F72202C20496C6C6567616C8E
:1032F00020506172616D0A0070B5054600F05AF801
:1033000004461D492846FFF783FD012813D11BA061
:10331000FCF7CEFF18492B392846FFF76DFF28B977
:103320000D2215492B39042000F0F4FF1E222946F6
:103330001148FDF709F91748B4FBF0F100FB114003
:10334000C8B915480068A04215D014A0FCF7B0FF1A
:1033500009492B392846FFF74FFF28B90D220649A6
:103360002B39042000F0D6FF1E2229460248FDF723
:10337000EBF80948046070BD250800206368616EA1
:103380006765642C207265706F727420646174616B
:103390000A000000C0270900D0050020496E666FB2
:1033A0003A2036303053207265706F727420646139
:1033B00074610A000148006870470000C8050020D9
:1033C00010B5174890F85400012827D1144890F8F8
:1033D000530002281DDAFFF7EDFF1149D1F87A10EA
:1033E000401AC8281AD9FFF7E5FF04460C4890F8A0
:1033F0005330D0F87A2021460AA0FCF759FF00F09C
:10340000A7FE074890F85300401C054981F8530077
:1034100004E02B2102485330FDF70DF910BD0000E8
:10342000100700205761726E696E673A67697A50BB
:10343000726F746F636F6C526573656E6444617410
:10344000612025642025642025640A003EB50446D9
:10345000002524B913A0FCF72BFF681E3EBD206891
:103460000090606801909DF80400401CC0B28DF887
:1034700004000520FFF75CFCADF802000921684656
:1034800000F0A4FE8DF808000921684602F0E2FD74
:103490000546002D03DA29460DA0FCF709FF284652
:1034A000DCE700004552523A2067697A50726F7427
:1034B0006F636F6C436F6D6D6F6E41636B20646102
:1034C000746120697320656D707479200A000000B2
:1034D0004552523A20756172742077726974652082
:1034E0006572726F72202564200A0000FEB50446E2
:1034F0000E46002524B914A0FCF7DAFE681EFEBDB6
:10350000684600F0D7F912208DF8040060798DF834
:1035100005000620FFF70CFCADF802008DF80860EE
:103520000A21684600F052FE8DF809000A2168461B
:1035300002F090FD0546002D03DA29460DA0FCF7A8
:10354000B7FE2846DBE7000067697A50726F746F38
:10355000636F6C4572726F72436D64204572726F57
:1035600072202C20496C6C6567616C20506172611F
:103570006D0A00004552523A2075617274207772CC
:10358000697465206572726F72202564200A0000DC
:1035900030B59DB0044600252CB92BA0FCF788FE61
:1035A000681E1DB030BD684600F084F902208DF819
:1035B000040060798DF805002FA103C9CDE902014F
:1035C00030A103C9CDE9040131A103C9CDE9080146
:1035D00032A103C9CDE90601202233A10AA8FCF7D4
:1035E000F8FF202239A10DF15200FCF7ADFF0020B9
:1035F000CDF84A00CDF84E009DF851008DF85100ED
:103600009DF8510040F002018DF851100020FFF7A5
:103610008FFBADF848006F20FFF78AFBADF8020082
:103620007321684600F0D2FD8DF872007321684660
:1036300002F010FD0546002D03DA29462CA0FCF708
:1036400037FE2846ADE7000067697A50726F746FE5
:10365000636F6C476574446576696365496E666F30
:10366000204572726F72202C20496C6C6567616C0A
:1036700020506172616D0A003030303030303034AB
:1036800000000000303030303030303200000000B8
:1036900030333033303030300000000030333031E0
:1036A0003031303000000000313162373134346362
:1036B0006232373334366561616662333631336383
:1036C00063373063373532370000000065363161CB
:1036D000333738393934353634356232613234383B
:1036E00064633266376139383236313400000000A5
:1036F0004552523A20756172742077726974652060
:103700006572726F72202564200A00002DE9FE4F59
:1037100080460E4617464FF0000B0020029081466F
:103720008246002534460090B8F1000F01D006B162
:1037300037B950A0FCF7BCFD4FF0FF30BDE8FE8F5D
:10374000404602F085FB00F0FF0ABAF1000F02D1FB
:103750004FF0FF30F2E74FF000095DE0012201A9D0
:10376000404602F0B2FB8346BBF1000F52D04D48F9
:103770000078FF281FD19DF80400FF281BD14A487C
:10378000007848B9FF202070607002204749088007
:1037900001204549087034E044480088042830DDA1
:1037A00042480088A8422CD0FF2020706070022080
:1037B0003E49088025E03B480078FF2803D19DF86A
:1037C000040055281DD038480078012819D19DF8EB
:1037D000040036490988605434480088401C334945
:1037E00008800846008804280BDD0094009C60884F
:1037F000FFF79EFA001D85B22C480088A84200D130
:103800000CE09DF804002749087029480078401C06
:103810002749087009F10109D1459FDB00BF234802
:103820000088042823DD21480088A8421FD11F48B2
:103830000188204600F0CAFC02901C480088401E07
:10384000215C029881420FD12A4621463046FCF77E
:103850007BFE3D80002014490870144908801449FB
:1038600008701049087069E76FF0010066E70120F1
:1038700064E7000067697A50726F746F636F6C471A
:1038800065744F6E655061636B6574204572726F2D
:1038900072202C20496C6C6567616C2050617261EC
:1038A0006D0A0000D8050020D4050020D6050020B0
:1038B000D905002010B504462CB907A0FCF7F8FC88
:1038C0004FF0FF3010BD002020606060FF202070AE
:1038D00060700020F6E700004552523A2067697A8E
:1038E00050726F746F636F6C48656164496E697480
:1038F000206865616420697320656D707479200AA1
:10390000000000002DE9F04F93B006468B461746A5
:103910009946002012908246804600256C46BBF1F5
:10392000000F06D130A0FCF7C3FC681E13B0BDE841
:10393000F08FB9F1010F06D196F8088008F1060062
:10394000384485B201E0781D85B22B46424639469F
:103950002BA0FCF7ADFCFF2004F8010B04F8010BD1
:10396000281204F8010B04F8015B3079401C04F8BC
:10397000010B707904F8010B002004F8010B04F826
:10398000019B4FF0080AB9F1010F0CD104F8018B2B
:103990000AF1010A0DEB0A00424606F10901FCF7A3
:1039A000D3FDC24444442FB10DEB0A003A465946B8
:1039B000FCF7CAFD291D684600F008FC0146E81C1A
:1039C0000DF80010291D684602F044FB1290129871
:1039D000002806DA14A01299FCF76AFC6FF00100C7
:1039E000A4E70020A2E700005B4552525D2020645E
:1039F000617461204973204E756C6C200A000000D0
:103A00006C656E203D202564202C20734469644C35
:103A1000656E203D202564202C646174615F6C65B7
:103A20006E203D2025640A007561727420777269EA
:103A30007465206572726F72202564200A00000090
:103A40002DE9F04780460C4617461D46089E94F81F
:103A500000900CB105B136B92FA0FCF729FC4FF04E
:103A6000FF30BDE8F087B8F1000F53D11B21364875
:103A7000FCF7E1FDB9F1010F06D0B9F1020F11D049
:103A8000B9F1050F44D123E02F4A79322E49601C49
:103A9000FFF7AAFA01202C497E3908700025002082
:103AA000306036E028496C3101F12B00FFF7A4FBB0
:103AB00050B90D2224496C31681CFCF745FD0320E8
:103AC00028700E20306002E04FF0FF30C9E720E0A0
:103AD0007A1E611C1C485A38FCF736FD781E1A49BC
:103AE0007E39C1F84700102117487E3890F87E20B3
:103AF0007F3081547F3890F87E00401C12497E3917
:103B000081F87E000320087000250020306000E06E
:103B100000BF00BF0020A4E767697A50726F746F1E
:103B2000636F6C49737375656450726F636573730B
:103B3000204572726F72202C20496C6C6567616C35
:103B400020506172616D0A008E07002070B5044636
:103B500025462CB90EA0FCF7ABFB4FF0FF3070BD33
:103B6000412205F108010E48FCF7EEFC0F210D483B
:103B700090F8CF20D0308154D03890F8CF00401C3E
:103B8000084981F8CF00052008700020E7E7000011
:103B90004E545020697320656D707479200A0000BE
:103BA000500800201007002010B504462CB9CAA008
:103BB000FCF77EFB4FF0FF3010BD2089FFF7B8F80F
:103BC0002081D1480078C0F38000217AC1F38001C0
:103BD000884256D0207AC0F38000002829D0207A6D
:103BE00000F0010078B10021C84890F899209A307F
:103BF00081549A3890F89900401CC44981F8990082
:103C0000C3A0FCF755FB207AC0F34000002838D051
:103C10000121BE4890F899209A3081549A3890F842
:103C20009900401CB94981F89900C1A0FCF740FBFC
:103C300027E0207A00F0010078B10021B34890F825
:103C400099209A3081549A3890F89900401CAF49D5
:103C500081F89900AEA0FCF72BFB207AC0F340005E
:103C600078B10221A94890F899209A3081549A3865
:103C700090F89900401CA54981F89900B3A0FCF781
:103C800017FBA1480078C0F3C000217AC1F3C0013E
:103C900088422CD0207AC1089B48007861F3C30089
:103CA00099490870207AC0F3C00080B10321974879
:103CB00090F899209A3081549A3890F89900401CD5
:103CC000924981F89900A8A0FCF7F2FA0FE00421CC
:103CD0008E4890F899209A3081549A3890F899003B
:103CE000401C8A4981F89900A7A0FCF7E1FA8648B0
:103CF0000078C0F30010217AC1F3001188422CD063
:103D0000207A01098048007861F304107E49087028
:103D1000207AC0F3001080B105217C4890F89920EA
:103D20009A3081549A3890F89900401C774981F86C
:103D300099009DA0FCF7BCFA0FE00621734890F8AB
:103D400099209A3081549A3890F89900401C6F4914
:103D500081F899009CA0FCF7ABFA6B480078C0F39F
:103D60004010217AC1F3401188422CD0207A4109B9
:103D70006548007861F3451063490870207AC0F304
:103D8000401080B10721614890F899209A30815401
:103D90009A3890F89900401C5C4981F8990093A0EA
:103DA000FCF786FA0FE00821584890F899209A30DD
:103DB00081549A3890F89900401C544981F8990030
:103DC00091A0FCF775FA50484078C0F3C001607AC2
:103DD000C0F3C00081422CD0607AC1084A484078C4
:103DE00061F3C30048494870607AC0F3C00080B1F5
:103DF0000B21464890F899209A3081549A3890F8CF
:103E00009900401C414981F8990087A0FCF750FABD
:103E10000FE00C213D4890F899209A3081549A384F
:103E200090F89900401C394981F8990085A0FCF769
:103E30003FFA35484078C0F30011607AC0F30010B3
:103E400081422CD0607A01092F48407861F3041038
:103E50002D494870607AC0F3001080B109212B48C9
:103E600090F899209A3081549A3890F89900401C23
:103E7000264981F899007BA0FCF71AFA0FE00A2185
:103E8000224890F899209A3081549A3890F89900F5
:103E9000401C1E4981F8990079A0FCF709FA0D2110
:103EA0001A4890F899209A3081549A3890F89900DD
:103EB000401C164981F89900607A00F0070081F8EB
:103EC0003301084690F8331174A0FCF7F1F9022091
:103ED0000E49087000206FE667697A50726F746F40
:103EE000636F6C4D6F64756C65537461747573208A
:103EF0004572726F72202C20496C6C6567616C2072
:103F0000506172616D0A0000DA0500201007002080
:103F10004F6E426F617264696E673A20536F6674C8
:103F20004150206F7220576562206D6F64650A00F2
:103F30004F6E426F617264696E673A204169724CDC
:103F4000696E6B206D6F64650A0000004F6E426FF2
:103F5000617264696E673A2053746174696F6E2090
:103F60006D6F64650A0000005769466920737461CB
:103F70007475733A20696E2062696E64696E672099
:103F80006D6F64650A0000005769466920737461AB
:103F90007475733A206F75742062696E64696E6718
:103FA000206D6F64650A000057694669207374616B
:103FB0007475733A20636F6E6E6563746564207206
:103FC0006F757465720A00005769466920737461E1
:103FD0007475733A20646973636F6E6E656374659C
:103FE0006420726F757465720A0000005769466933
:103FF000207374617475733A20636F6E6E656374B9
:104000006564206D326D0A005769466920737461DA
:104010007475733A20646973636F6E6E656374655B
:1040200064206D326D0A000057694669207374611F
:104030007475733A2061707020636F6E6E6563747F
:104040000A00000057694669207374617475733AF9
:10405000206E6F2061707020636F6E6E6563740AEE
:104060000000000057694669207374617475733AE3
:1040700020696E2074657374206D6F64650A00009A
:1040800057694669207374617475733A206F75744B
:104090002074657374206D6F64650A005253534930
:1040A000206973202564200A0000000070B50446D2
:1040B00025462CB918A0FCF7FBF84FF0FF3070BD77
:1040C0001A48A9684163E9688163298A8187A97CC4
:1040D00080F83E10A0F58071B1F83401FEF728FE9B
:1040E0001349A1F83401D1F83C01FEF72EFE104926
:1040F000C1F83C010E210E4890F8B420B53081542F
:10410000B53890F8B400401C094981F8B400042087
:1041100008700020D3E700004552523A204E545018
:1041200020697320656D707479200A0010080020E2
:104130001007002010B5FFF73DF9044600BFFFF758
:1041400039F9001BB0F5167FF9D901F0FDF810BD63
:1041500010B500240E4890F8540000B910BD0DA011
:10416000FCF7A6F80A48B0F87810553001F072FF55
:1041700004460748B0F87800A04202D00DA0FCF732
:1041800097F8FFF717F90249C1F87A0000BFE5E791
:10419000100700205761726E696E673A2074696D6E
:1041A000656F75742C20726573656E64206461742C
:1041B00061200A004552523A20726573656E642090
:1041C00064617461206572726F720A0010B50246F4
:1041D0000024002302B109B9002010BD022303E02E
:1041E000D05C2044C4B25B1C481E9842F8D82046DC
:1041F000F3E7000070B504460D462CB90FA0FCF79C
:1042000057F84FF0FF3070BD2B211248FCF713FA1E
:104210002A4621460F48801CFCF796F90D48533872
:10422000A0F87850012180F85410FFF7C3F809492D
:104230005339C1F87A000020E5E700004552523AB0
:10424000206461746120697320656D707479200A3F
:10425000000000006307002070B50446094D2CB92A
:1042600009A0FCF725F84FF0FF3070BD2879401CFD
:104270002179884204D12B210248801EFCF7DBF90A
:104280000020F2E7650700204552523A206461742D
:104290006120697320656D707479200A0000000048
:1042A00070B504460D46002624B90AA0FCF700F8B4
:1042B000701E70BD2A4621460E4801F057FE064684
:1042C000AE4205D00CA0FBF7F3FF4FF0FF30F0E754
:1042D0003046EEE74552523A2067697A5075744489
:1042E0006174612062756620697320656D707479F0
:1042F000200A0000910800204552523A2046616988
:104300006C656420746F2072625772697465200A4C
:1043100000000000F0B587B005460E4617460024A1
:104320002EB91FA0FBF7C4FF601E07B0F0BD01A8A7
:10433000FFF7C0FA05208DF80800234890F84B10CD
:10434000D0F84B00401C204AC2F84B00C8B28DF890
:1043500009008DF80C501320FEF7EAFCADF80600BA
:104360003A4631460DF10D00FCF7EEF8172101A891
:10437000FFF72CFF8DF81A00172101A801F06AFE43
:104380000446002C06DA214610A0FBF791FF6FF0DF
:104390000100CAE7172101A8FFF72CFF2046C4E758
:1043A00067697A5265706F727444617461204572F6
:1043B000726F72202C20496C6C6567616C205061B3
:1043C00072616D0A00000000100700204552523A49
:1043D0002075617274207772697465206572726FDE
:1043E00072202564200A00002DE9F04704460D469E
:1043F0001746089E4FF00009CA46C8461BB94FF041
:10440000FF30BDE8F08739462846FEF7D3FC8046EA
:10441000B8F1000F07D1185D05F0070106FA01F1A8
:10442000084318551EE0B8F1010F1BD1F0B205F09A
:104430000701C1F1080140FA01F905F00700C0F1D8
:104440000801FF20084100EA060A601C185C40EAE7
:104450000900611C5854185D05F007010AFA01F1C2
:10446000084318550020CCE72DE9F04F8FB00546E2
:104470000C4616469946189F4FF0000AD346002076
:104480000E908046B9F1000F00D027B94FF0FF30F1
:104490000FB0BDE8F08F3A46494601A8FCF754F842
:1044A000012F09D9394601A8FEF799FCB0F1FF3F69
:1044B00002D14FF0FF30EBE731462046FEF77AFCA1
:1044C0008246BAF1000F0CD101A8405D04F007014B
:1044D0000841C6F10802FF211141084040EA0808DE
:1044E00021E0BAF1010F1ED101A9681C085C04F09B
:1044F0000701C1F10801711AC1F10802FF21114140
:1045000000EA010B01A8405D04F0070108410E908C
:1045100004F00700C0F108010BFA01F040EA0808B6
:104520000E9848EA00084046B2E7000002480068DA
:10453000401C014908607047C805002010B50346BB
:10454000002002FB031010BD10B503460020541AD2
:10455000B4FBF3F010BD00002DE9FF5F07460E46E7
:1045600093464FF000083446B1463546B24607B18F
:1045700026B94FF0FF3004B0BDE8F09F4FF00008BF
:10458000ACE0781C10F808001A2874D2DFE800F0BC
:10459000747576A0A07778797AA0A0A0A07B859486
:1045A000810D161F2B37434F5B6720784E490870EB
:1045B000084601784DA0FBF77BFE8AE060784A4907
:1045C0004870084641784EA0FBF772FE81E0D4F8AF
:1045D00002004549C1F802000846D0F802104EA07A
:1045E000FBF766FE75E0D4F806003F49C1F8060007
:1045F0000846D0F806104DA0FBF75AFE69E0D4F843
:104600000A003949C1F80A000846D0F80A104CA03F
:10461000FBF74EFE5DE0D4F80E003349C1F80E0002
:104620000846D0F80E104BA0FBF742FE51E0D4F83C
:1046300012002D49C1F812000846D0F812104BA004
:10464000FBF736FE45E0D4F816002749C1F81600FE
:104650000846D0F816104BA0FBF72AFE39E0D4F834
:104660001A002149C1F81A000846D0F81A104BA0C8
:10467000FBF71EFE2DE02BE02BE02AE029E028E0EE
:1046800027E026E025E099F800104BA0FBF710FE8C
:104690001FE04CA0FBF70CFE1BE0A9796A792B798F
:1046A000A868CDE90032CDE90210EB78AA78298814
:1046B00049A0FBF7FDFD0CE052A0FBF7F9FD56A069
:1046C000FBF7F6FD9AF8001057A0FBF7F1FD00E0AC
:1046D00000BF00BF08F1010000F0FF083878404536
:1046E0003FF74FAF002046E7FA0500204576743AC1
:1046F000204556454E545F4C4544202564200A0011
:104700004576743A204556454E545F437572746140
:10471000696E202564200A004576743A4556454E58
:10472000545F54656D702025640A00004576743A24
:104730004556454E545F48756D2025640A000000BB
:104740004576743A4556454E545F5072652025644F
:104750000A0000004576743A4556454E545F475A64
:104760005F56616C75652025640A00004576743AD1
:104770004556454E545F4D51325F56616C7565200C
:1047800025640A004576743A4556454E545F4D51AE
:10479000375F56616C75652025640A004576743A6A
:1047A0004556454E545F4D513133355F56616C75FA
:1047B000652025640A000000525353492025640AED
:1047C000000000005452414E53504152454E545F38
:1047D00044415441200A0000574946495F4E545015
:1047E000203A205B25642D25642D25642025303258
:1047F000643A253032643A253032645D5B25645D6D
:10480000200A00004D4F44554C4520494E464F204C
:104810002E2E2E0A00000000574946204D4F4455C9
:104820004C45202E2E2E0A006D6F64756C655479F0
:104830007065203A205B25645D200A002DE9F04177
:1048400096B0054600260020039002900024804682
:10485000002735B982A0FBF72BFD601E16B0BDE81E
:10486000F081FEF7ADFD03AA87498848FEF74EFFA9
:104870000646002E71D186A0FBF71AFD824C2079E6
:104880000F284FD00ADC0E2873D2DFE800F0721632
:10489000721A7272433872724472453C182852D0B0
:1048A00006DC112847D0142846D0162861D134E000
:1048B000222854D02A285CD130E02046FEF768FE3A
:1048C0005FE0E279A17977A0FBF7F2FC02A8009003
:1048D00007F10900BDF80C301A1A6B480830C119ED
:1048E00004AB4046FFF7ACF840B9E37904A9204691
:1048F000029AFFF707F86FA0FBF7DAFC41E02046C9
:10490000FEF7A4FD3DE02046FEF7A0FD2046FFF7A0
:104910004BF936E000BF00BF00BF00BF2046FFF7E5
:104920009BFC2EE02046FEF791FD65A0FBF7C0FC46
:10493000FFF700FC25E024E02046FFF78DFC65A092
:10494000FBF7B6FC1DE02046FFF786FC2046FFF78C
:10495000ADFB68A0FBF7ACFC13E013E009E02046D8
:10496000FFF77AFC2046FFF7F1F868A0FBF7A0FC00
:1049700007E002212046FEF7B9FD6BA0FBF798FC8B
:1049800000BF0DE016F1020F0AD13F4C0121204675
:10499000FEF7ACFD6AA0FBF78BFC6FF001005DE752
:1049A0003948401E0078062853D2DFE800F0520351
:1049B0001324304100203449491E08701E22F7316B
:1049C000A1F17900FFF7C8FD1B212F487D30FBF7CF
:1049D00032FE3FE000202C49491E0870012201F2FE
:1049E0003311A1F19A00FFF7B7FD1B21264898303B
:1049F000FBF721FE2EE000202349491E08700846DF
:104A0000D0F8472024317E30FFF7A6FD22E00020B9
:104A10001D49491E08700C2201F59A71A1F1800010
:104A2000FFF79AFD1B211848B330FBF704FE11E095
:104A300000201549491E0870412201F5A071A1F11D
:104A40007100FFF789FD41210F48CE30FBF7F3FDE0
:104A500000E000BF00BF2846FEF74EFC0020FDE648
:104A600047697A7769747348616E646C6520457232
:104A7000726F72202C20496C6C6567616C205061EC
:104A800072616D0A000000001107002091080020EB
:104A9000476574204F6E65205061636B6574210A11
:104AA00000000000666C6167202578202578200AC8
:104AB0000000000041636B44617461203A200A00E9
:104AC0007265706F72743A4D4355207265626F6FF4
:104AD00074210A0041636B2050524F44554354499E
:104AE0004F4E5F4D4F44452073756363657373206C
:104AF0000A00000041636B204745545F5554542021
:104B000073756363657373200A00000041636B2053
:104B10004745545F4D6F64756C65207375636365BD
:104B20007373200A000000004552523A20636D64FE
:104B300020636F6465206572726F72210A00000045
:104B40004552523A20636865636B2073756D20652A
:104B500072726F72210A000010B546200A4908607F
:104B60000A48C860084601F0A5F918B908A0FBF783
:104B70009FFB02E00BA0FBF79BFB40F281110E486C
:104B8000FBF759FD10BD000091080020A10800208E
:104B900072624372656174652053756363657373F4
:104BA000200A000072624372656174652046616983
:104BB0006C64200A000000001007002030B587B0A8
:104BC00005460024062D7CD2DFE805F003305F9017
:104BD000BDEA01A8FEF76EFE0B208DF808008B4899
:104BE00090F84B10D0F84B00401C884AC2F84B009C
:104BF000C8B28DF809000520FEF79AF8ADF8060056
:104C0000092101A8FFF7E2FA8DF80C00092101A89B
:104C100001F020FA0446002C03DA21467CA0FBF7C1
:104C200047FB092101A8FFF7E5FAEAE004A8FEF72F
:104C300041FE09208DF81400744890F84B10D0F80C
:104C40004B00401C714AC2F84B00C8B28DF81500E9
:104C50008DF818500620FEF76BF8ADF812000A2107
:104C600004A8FFF7B3FA8DF819000A2104A801F08F
:104C7000F1F90446002C03DA214665A0FBF718FB86
:104C80000A2104A8FFF7B6FABBE004A8FEF712FE5B
:104C900009208DF814005D4890F84B10D0F84B00B7
:104CA000401C5A4AC2F84B00C8B28DF815008DF866
:104CB00018500620FEF73CF8ADF812000A2104A8AF
:104CC00000E09AE0FFF782FA8DF819000A2104A8A3
:104CD00001F0C0F90446002C03DA21464CA0FBF792
:104CE000E7FA0A2104A8FFF785FA8AE001A8FEF78F
:104CF000E1FD13208DF80800444890F84B10D0F8DF
:104D00004B00401C414AC2F84B00C8B28DF8090064
:104D10000520FEF70DF8ADF80600092101A8FFF700
:104D200055FA8DF80C00092101A801F093F9044609
:104D3000002C03DA214636A0FBF7BAFA092101A8B4
:104D4000FFF758FA5DE001A8FEF7B4FD15208DF8D5
:104D500008002E4890F84B10D0F84B00401C2B4A0E
:104D6000C2F84B00C8B28DF809000520FDF7E0FF3E
:104D7000ADF80600092101A8FFF728FA8DF80C000C
:104D8000092101A801F066F90446002C03DA214646
:104D90001FA0FBF78DFA092101A8FFF72BFA30E0DD
:104DA00001A8FEF787FD29208DF80800174890F824
:104DB0004B10D0F84B00401C144AC2F84B00C8B24C
:104DC0008DF809000520FDF7B3FFADF806000921B5
:104DD00001A8FFF7FBF98DF80C00092101A801F0EB
:104DE00039F90446002C03DA214609A0FBF760FAE2
:104DF000092101A8FFF7FEF903E00CA0FBF758FA20
:104E000000BF00BF204607B030BD000010070020E3
:104E10004552523A20756172742077726974652028
:104E20006572726F72202564200A00004552523A62
:104E3000204366674D6F6465206572726F72210A48
:104E4000000000002DE9F0410746884615461E4641
:104E50000024FBF799FF3846FBF762FFFBF7E0FF02
:104E60004046FBF75DFFFBF7DBFFFBF78DFF47F0ED
:104E70000100FBF755FFFBF7D3FF00BF0CE0681EF6
:104E8000A04204D10020FBF713FF305503E00120BE
:104E9000FBF70EFF3055641CAC42F0DBFBF79AFFCA
:104EA000BDE8F08170B504460D460026FBF76CFFA7
:104EB0002046FBF735FFFBF7B3FF2846FBF730FF33
:104EC000FBF7AEFFFBF760FF44F00100FBF728FFA4
:104ED000FBF7A6FF0020FBF7EBFE0646FBF77AFF89
:104EE000304670BD70B506460C461546FBF74CFFC4
:104EF0003046FBF715FFFBF793FF2046FBF710FF4B
:104F0000FBF78EFF2846FBF70BFFFBF789FFFBF74C
:104F100061FF70BD00254FF4E13001F0CBF8FDF7E3
:104F200099FE4FF4A060FCF723FEFBF70DFEFCF7A3
:104F30002FFDFDF70FFEFCF7B1FDFCF77DFEFCF742
:104F400021FEFCF70FFDBEE10020FCF7CFFCDE48A0
:104F50000088DE490988884208DCDD48007828B9E5
:104F60000020DC490860DC4908700DE0D648008864
:104F7000D6490988884207DDD548007820B9012044
:104F8000D4490860D4490870D4480078D2490978D7
:104F900088420DD0CE48007850B94FF48772032173
:104FA000CD480078FBF76EFFCB480078CB490870FE
:104FB000CB484078C9490978884212D0C448007863
:104FC00001280ED1C64948784FF487720321FBF7B8
:104FD00059FFC3484078C0490870C1484078BF496C
:104FE0000870BB480078012807D1BD48007808B98F
:104FF000012000E00020B7490860BA480078BA49AB
:10500000098888421DDAB9480078B9490988884278
:1050100017DDB8480088B8490988884211DAB748CE
:105020000088B749098888420BDDB6480088B64930
:105030000988884205DAB5480088B5490988884258
:1050400008DBB448006808B9012000E00020B1493D
:10505000086002E00020AF4908600020FCF7B8FCBF
:105060000446022C04D1AC480078401CAA490870C0
:10507000A949087800EBD0714910A0EB4101002943
:105080007ED10A2D7CDB002211461046FCF77AFE09
:10509000022200211020FCF775FE924802789FA1A1
:1050A000A048FBF711F910239E4A00212020FCF7AD
:1050B000EFFE012200214020FCF764FE02220021C5
:1050C0005220FCF75FFE8948027897A19548FBF7CC
:1050D000FBF81023934A00216020FCF7D9FE03223D
:1050E00002210020FCF74EFE042202211020FCF7D2
:1050F00049FE804802888EA18A48FBF7E5F8102314
:10510000884A02212020FCF7C3FE0522042100204A
:10511000FCF738FE062204211020FCF733FE07229C
:1051200004212020FCF72EFE082204213020FCF769
:1051300029FE6548028882A17A48FBF7C5F810234A
:10514000784A04214020FCF7A3FE09220621002012
:10515000FCF718FE0A2206211020FCF713FE0B2292
:1051600006212020FCF70EFE0C2206213020FCF741
:1051700009FE6248028872A16A48FBF7A5F800E0C0
:1051800006E01023674A06214020FCF781FE8AE0F2
:105190006149087800EBD0714910A0EB4101012969
:1051A000F5D10A2D7FDB0D2200210846FCF7EAFD30
:1051B0000E2200211020FCF7E5FD0F220021202007
:1051C000FCF7E0FD102200213020FCF7DBFD4D480C
:1051D00002885BA15348FBF777F81023514A00215E
:1051E0004020FCF755FE112202210020FCF7CAFDE9
:1051F000122202211020FCF7C5FD132202212020DB
:10520000FCF7C0FD142202213020FCF7BBFD3F4813
:1052100002884BA14348FBF757F81023414A02216B
:105220004020FCF735FE052204210020FCF7AAFDF2
:10523000062204211020FCF7A5FD072204212020CE
:10524000FCF7A0FD082204213020FCF79BFD1E483E
:1052500002883BA13348FBF737F81023314A042179
:105260004020FCF715FE092206210020FCF78AFDEC
:105270000A2206211020FCF785FD0B2206212020A2
:10528000FCF780FD0C2206213020FCF77BFD1B483B
:1052900002882BA12348FBF717F81023214A062187
:1052A0004020FCF7F5FD00F0ADFFE0B2FDF724FA79
:1052B0000B48FFF7C3FAE0B2FBF780FE681CC5B2EB
:1052C0006420FDF7E9FC3FE61600002024000020E2
:1052D0000E000020808121421100002012000020D9
:1052E000FA050020A40500201E000020A5050020CE
:1052F0002000002014000020220000201C000020BC
:105300002A00002018000020260000201A0000209B
:1053100028000020B4012242100000203A25326407
:1053200043000000DC0500203A25326425250000FA
:105330003A2532646870612020202020000000009F
:105340003A25346470706D00012080F3138800BF2B
:1053500000BF0748006800F4E06006490843001DEC
:1053600003490860BFF34F8F00BF00BFFEE7000096
:105370000CED00E00000FA052DE9F04D1D460C464D
:1053800098B0174621F0004123F00043002814BFD5
:105390004FF0010C4FF0000C0CEB440CFE4A0CEBF0
:1053A00002064FEA620C66452BD33E0018BF012669
:1053B00006EB45061644F94A964222D3F84A53EAC8
:1053C000070C02D0944205D148B918B0002011460C
:1053D000BDE8F08D002808BF4FF0000C01D04FF061
:1053E000010C0CEB440212F5001F0AD8002F14BF69
:1053F0004FF0010C4FF0000C0CEB450212F5001FB2
:1054000007D918B03A462B462146BDE8F04DFDF7C6
:1054100015BA0022DFF88CA3002CB8BF534526DA5A
:10542000DFF884C36345A8BF022220DADFF870C327
:105430009C451CDCDFF874C30CEB235CBCF1140F3F
:1054400008DDCCF1340627FA06FC0CFA06F6BE425B
:105450000DD108E05FB9CCF1140623FA06FC0CFA72
:1054600006F69E4203D10CF00102C2F1020251EA9B
:10547000000C19D1002D17DA002C18BF022A01D018
:10548000012A07D00220FBF778F918B0BDE8F04DEB
:10549000FDF7CCB90220FBF770F9FDF7C7F918B09A
:1054A00081F00041BDE8F08DB7F1000C6CD153459F
:1054B00025D104F1804212F5801201BF002800209E
:1054C000B74918B008BFBDE8F08DB548884207DC81
:1054D000002DA1BF6046294618B0BDE8F08D07E059
:1054E000281E05DA80F0004118B06046BDE8F08D56
:1054F000AF497944D1E9000118B0BDE8F08DDFF87B
:10550000A0C2634525D1002D1FDA19B1514512D132
:10551000D8B909E0002840F0EC82A24A214618B030
:1055200062F31E01BDE8F08D0020214618B060F343
:105530001E01BDE8F08D08DA18B02346BDE8F04D35
:1055400002460020614600F08DBF18B02146BDE83C
:10555000F08D514518DAB5F1804F0DD0A5F1005C02
:10556000BCF1FF5C10D1B4F1000C0DDB18B061464A
:10557000BDE8F04D00F047BD234618B00246BDE837
:10558000F04D194601F02CB9060024F0004C3BD137
:10559000D9B1514533D1002C06DD002DA1BF00202B
:1055A000514618B0BDE8F08D002C01DD002D1BDB4D
:1055B000002C13DA002D11DB012A4FF0000014BF7C
:1055C00078497C4918B0BDE8F08D022A18BF002C3C
:1055D0000AD0012A08D1002C06DA0AE0002CB8BF54
:1055E000002D11DA012A04D0002018B00146BDE8D0
:1055F000F08D18B000204FF00041BDE8F08DA1F112
:105600004050B0F17F601AD0012000EBE47050EA06
:10561000020421D0624C521E4FF0000B104304BF15
:105620004FF0000B644C654883427CDD644A65485A
:1056300093421FDD884217DB002D25DB37E0002C6D
:1056400000DA4AB1022A0CBF01204FF0FF3018B037
:10565000BDE8F04D01F05EB80120FBF78EF818B000
:10566000BDE8F04DFDF7ECB84D4A8A4202DC002D52
:105670000ADC1CE0814202DA002D18DA04E0484B13
:10568000994220DD002D12DD0220FBF776F8FDF7B0
:10569000DDF805460E46002253465846214601F0E5
:1056A0009FF818B066F31E012846BDE8F08D022071
:1056B000FBF763F8FDF7D2F80A46214618B062F30B
:1056C0001E01BDE8F08D00223046614601F0AEFAC1
:1056D00080460E466FF0010201F099FE4FF0553200
:1056E000394B01F0B1F94246334601F079F8002216
:1056F000364B01F0A9F982464246334604911046E2
:10570000194601F06DF85246049B01F069F88A468B
:1057100000904FF0C0422E4B4046314601F060F8F9
:105720002C4A2B4B00E027E0CDE9060151460098BA
:1057300001F056F882460191274A284B40463146EF
:1057400001F04EF85246019B01F070FA82460B467A
:1057500002460591DDE9060100F0C8FDDDE90623FA
:1057600000268846304601F061FA5246059B01F05A
:105770006BF9024600F07EB90020B1F5801F07DA10
:1057800035223046614601F042FE06466FF0340095
:1057900000EB215024E00000FFFF1F00FFFF0F007F
:1057A0000000F03F0000F07F0000404301FCFFFFDD
:1057B000922800000000F0FF0000F0BF0000E04170
:1057C0000000F043FFFFEF3F5555D53F0000E03F9D
:1057D0004715F73FFE822B6544DF5DF80BAE543E64
:1057E000A0F2FF300190C1F3130040F07F6141F05F
:1057F00040510291FE498842D8BF002004DDFD4996
:105800008142C8BF012001DD0D9008E000200D900D
:105810000198401C01900298A0F580100290029916
:10582000F54878440B910D9900EBC100D0E90023B5
:105830000F9330460A920B9901F0F8F9CDE9060171
:10584000DDE90A2130460F9B00F050FD02460B4671
:105850000020EA4900F006FE059102460B46009042
:10586000DDE9060100F0BCFF1490E5488A464FF0E0
:10587000000878440299006812904FF0005040EA06
:1058800061010D980F9B01EB804000F5002109910B
:105890000A9A129801F0CAF932460B9B01F0D4F82B
:1058A0004246534600F09CFF064602914046514650
:1058B000099B129A00F094FFDDE9062301F0C4F879
:1058C0003246029B01F0B2F9059B009A00F088FF76
:1058D0000091149A049053461046194600F080FF38
:1058E00006460246C7480B46029106217844FCF75B
:1058F00047FFCDE90510029B32461046194600F0DD
:105900006FFFDDE9053200F06BFF05910646534657
:1059100040461946149A00F0E9FC009B049A00F0F6
:105920005FFF3246059B00F0E1FCCDE905104246E1
:1059300053461046194600F053FF0022B24B029125
:105940000A9000F0D3FCDDE9053200F0CFFC0E46F2
:105950004246AD4B404601F069F9029B0A9A01F0BC
:1059600065F9DDE9053201F06FF8424602910A90CF
:1059700033461046514600F033FFCDE90601534649
:10598000149A02990A9800F02BFF8A460290334637
:1059900042460099049800F023FF5346029A00F013
:1059A000A5FC82460B4602460591DDE9060100F0A2
:1059B0009DFCDDE9062300208846064601F036F905
:1059C0005246059B01F040F8824609914FF0604233
:1059D0008E4B3046414600F003FF049006918C4AFE
:1059E0008A4B5046099900F0FBFE82460291894A93
:1059F000894B3046414600F0F3FE5246029B00F0D0
:105A000075FC864B7B440D9A03EBC203D3E900235C
:105A100000F06CFC0E900791019800F07BFE059160
:105A2000DDE9061382460E9A049800F05FFC7C4A7A
:105A30007A440D9B02EBC303D3E900230093029247
:105A400000F054FC5246059B00F050FC00268846AE
:105A500052463046059B01F0E9F8009B029A01F09E
:105A6000E5F8069B049A01F0E1F8079B0E9A00F016
:105A7000EBFF024600200B4602903846294600F014
:105A8000AFFE824601912B4638461946029A01F034
:105A9000CDF83246434600F0A3FE5246019B00F08B
:105AA00025FC07468A46324643462946029800F0BE
:105AB00097FE05460E463A46534600F017FC594AF3
:105AC0008846914221DBA8EB020353EA000210D181
:105AD0002A46334601F0AAF8CDE90401524A534B55
